:020000040800F2
:1000000090200020DD01000857300008912C0008E6
:10001000553000089D0B00088534000800000000E2
:100020000000000000000000000000004501000882
:10003000F50D00080000000089010008913000085B
:10004000F7010008F7010008F7010008F7010008B0
:10005000F7010008F7010008F7010008F7010008A0
:10006000F7010008F7010008F7010008F701000890
:10007000F7010008F7010008DD0D0008E90D000890
:10008000F7010008F7010008F7010008F701000870
:1000900079340008F7010008F7010008F7010008AB
:1000A000F7010008F7010008F7010008F701000850
:1000B000F7010008413100084D310008F701000840
:1000C000F7010008F7010008F7010008F701000830
:1000D000F70100086D340008F7010008F701000877
:1000E000F7010008F7010008F7010008F701000810
:1000F000F7010008F7010008F7010008F701000800
:10010000F7010008F7010008F7010008F7010008EF
:10011000F7010008F701000859310008F70100084D
:10012000F7010008F7010008F7010008F7010008CF
:10013000DFF80CD000F0F6FC0048004779480008D2
:1001400090200020224B19680868B0E8F00F80F377
:100150000988BFF36F8F4FF0000080F311884EF0D5
:100160000D0E70470000000006480068006880F32C
:10017000088862B661B6BFF34F8FBFF36F8F00DFA1
:1001800000BF00BF08ED00E0EFF30980BFF36F8F01
:100190000F4B1A6820E9F00F106008B54FF05000BF
:1001A00080F31188BFF34F8FBFF36F8F05F022FEEE
:1001B0004FF0000080F31188BDE808401968086816
:1001C000B0E8F00F80F30988BFF36F8F704700BF6E
:1001D000C8000020EFF30580704700000648804704
:1001E00006480047FEE7FEE7FEE7FEE7FEE7FEE71C
:1001F000FEE7FEE7FEE7FEE7F93000083101000800
:10020000202A04DB203A21FA02F00021704721FA6B
:1002100002F3D040C2F120029140084319467047D2
:1002200040EA01039B0703D009E008C9121F08C078
:10023000042AFAD203E011F8013B00F8013B521EF8
:10024000F9D27047D2B201E000F8012B491EFBD26F
:1002500070470022F6E710B513460A4604461946D1
:10026000FFF7F0FF204610BDF0B480EA0102D40F82
:100270004200B2EB410F02D20246084611464A0044
:1002800042D0C30DDDB2C1F3C752AD1A202D35DA0D
:10029000C1F3160141F4000204B15242C5F1200637
:1002A00002FA06F12A411044B3EBD05F23D0C4B167
:1002B000012DA0EBC35009DCF0BC4FF0004202EA74
:1002C000C352DBB200F5000000F01FBB400000F19C
:1002D000807000EBC350A0F1807040EAD1704900FB
:1002E00009E0490841EAC071A0EBC35000F50000E5
:1002F000400800EBC350F0BC00F0FEBA614201229E
:1003000002EB4101001BF6E7F0BC704781F00041B1
:10031000AAE780F00040A7E780EA010210B502F0EA
:100320000043400022D04A001FD0010E01EB1261B1
:10033000C0F35600C2F3560240F4000042F400023B
:10034000A0FB022000047F39140400D0401C50EAB6
:10035000124001D44000491EC2B20C0604EBD0107A
:10036000401C4008802A02D003E0002010BD20F08D
:100370000100002900DA0020184310BD30B480EAE3
:10038000010202F0004530F0004221F0004013D09D
:1003900090B1C30DD40DC2F31601C0F31600E41AD8
:1003A00041F4000140F400027D34914201D3641C09
:1003B00000E04900002C02DA30BC002070474FF406
:1003C00000000023914201D3891A034340084FEAF9
:1003D0004101F7D151B1914202D14FF0004105E006
:1003E00002D24FF0010101E06FF0010103EBC450B4
:1003F000284430BC00F080BA420005D0C0F3C75298
:100400005242914201DC0020704700EBC15070471E
:100410002DE9FE4F804681EA0300C00F0C46009094
:1004200021F0004123F00045B8EB0200A94105D2BC
:100430004046214690461C460B46024623F00040AB
:10044000104347D0270DC7F30A00C3F30A510290A7
:10045000401A019040286BDAC3F3130040F4801B6C
:100460000098924620B10023D2EB030A63EB0B0BFA
:1004700001985946C0F14002504600F01CFA064669
:100480000D4650465946019A00F024FA10EB080038
:100490006141002487EA115284EAE7731A4340D08D
:1004A000009A62B3019A012A4FEA075215DC001B39
:1004B00061EB02014FF0004202EA0752CDE900422F
:1004C000001C41F5801132462B4600F05BFA03B068
:1004D000BDE8F08F40462146F9E7001B61EB0201C1
:1004E000001C41F5801300185B412018A2F500178D
:1004F00047EB030140EAD570B6196D4111E06D0874
:100500004FEA360645EAC0754FEA0752001B61EB19
:100510000201001C41F5801149084FEA3000001922
:10052000514132462B4603B0BDE8F04F00F01BBAF4
:100530000098012240000023D0EB020263EBE0733D
:10054000009821464FEAE074B8EB000061EB04012B
:10055000E9E783F000435BE781F0004158E72DE9CC
:10056000FE4F81EA030404F0004421F000410094AE
:100570004FF0000B23F0004350EA01045ED052EA32
:1005800003045BD0C3F30A54C1F30A552C44A4F20C
:10059000F3340194A0FB0254C1F3130141F4801120
:1005A000C3F3130343F4801301FB024400FB034E27
:1005B000840A970A44EA815447EA8357A4FB0768F0
:1005C00002958D0A05FB07854FEA932C04FB0C541A
:1005D0002705029D4FEA065847EA1637B5EB08058E
:1005E0006EEB070C870E920E47EA811742EA8312E0
:1005F000A7FB0201B6EB0B0164EB00042B0D43EAF1
:100600000C335E1844EB1C50DA465146E7FB0201FE
:10061000C5F313044FEA0B3343EA14534FEA043291
:10062000019C43EA0603A4F10C040294009CCDE96A
:1006300000B400F0A7F903B0BDE8F08F0020014638
:10064000F9E72DE9F04D81EA030404F0004B21F0B5
:10065000004514464FF0000A23F0004150EA05021D
:1006600020D054EA01021DD0C5F30A570246C5F353
:100670001303C1F31300C1F30A5640F4801543F489
:100680008013A7EB0608101BD64608F2FD3873EB63
:10069000050002D308F1010801E092185B41B8F1AE
:1006A000000F03DA00200146BDE8F08D00204FF472
:1006B0008011064684460EE0171B73EB050705D331
:1006C000121B63EB050306434CEA010C49084FEA91
:1006D000300092185B4150EA0107EDD152EA030065
:1006E00012D082EA040083EA0501084305D0101BFA
:1006F000AB4106D20122002306E000224FF0004366
:1007000002E06FF0010253101AEB06004CEB0851A7
:1007100010EB0A0041EB0B01BDE8F04D00F023B9EE
:1007200070B521F0004303430CD0C1F30A550024F7
:10073000D5EB040564EB0403D617AD1AB34102DB15
:100740000020014670BD201841EB025170BDC10F61
:1007500080EAE0700844CA079623002100F0D5B86B
:1007600096230022114600F0D0B80EB5C10F80EAE2
:10077000E0700844CA07002140F233438DE80E00C0
:100780000A460B4600F0FEF803B000BD70B5C1F399
:100790000A5201F000450024C1F3130140F2FF3377
:1007A00041F480119A4201DA002070BD40F23343D7
:1007B0009A42A2F2334203DC5242FFF721FD00E0ED
:1007C00090402C43F1D0404270BD00F0004230F028
:1007D00000400AD0C10D01F56071C0F3160042EA75
:1007E0000151C2084007114370470020014670477D
:1007F00001F0004330B421F0004150EA010206D07C
:100800000A0DA2F56072C1F31301002A02DC30BCAC
:1008100000207047440F44EAC104C100E01830BC16
:1008200000EBC25000F068B830B50B46014600201E
:100830002022012409E021FA02F59D4205D303FAA2
:1008400002F5491B04FA02F52844151EA2F1010223
:10085000F1DC30BD2DE9F05F0546002092469B4655
:1008600088460646814640241BE0284641464746C6
:100870002246FFF7C5FC53465A46C01A914110D391
:1008800011461846224600F016F82D1A67EB0108AB
:100890004F4622460120002100F00DF817EB000919
:1008A0004E41201EA4F10104DFDC484631462A46B1
:1008B0004346BDE8F09F202A04DB203A00FA02F10B
:1008C000002070479140C2F1200320FA03F319433E
:1008D00090407047202A06DBCB17203A41FA02F0FD
:1008E00043EAE07306E041FA02F3D040C2F120028D
:1008F00091400843194670470029A8BF7047401C23
:10090000490008BF20F00100704710B4B0FA80FC25
:1009100000FA0CF050EA010404BF10BC704749B162
:10092000CCF1200421FA04F411FA0CF118BF0121D2
:1009300021430843A3EB0C01CB1D4FEA00614FEAB2
:10094000102042BF002010BC704700EBC350104481
:100950000029A4BF10BC7047401C490008BF20F00C
:10096000010010BC704710B5141E73F1000408DAC2
:10097000401C41F1000192185B411A4301D120F063
:10098000010010BD2DE9F04D92469B4611B1B1FA20
:1009900081F202E0B0FA80F220329046FFF78BFF3E
:1009A00004460F4640EA0A0041EA0B0153465A4604
:1009B000084313D0114653EA010019D0C8F1400290
:1009C0005046FFF71DFC05460E4650465946424626
:1009D000FFF771FF084305D0012004E020463946A7
:1009E000BDE8F08D0020054346EAE0762C4337430E
:1009F0000A986305E40AA0EB08000022FD0A44EA15
:100A000047540A3002D500200146E9E701051019D4
:100A10006941DDE9084500196941BDE8F04DA2E7EB
:100A20002DE9F04D00231A461B1A8A4103DB0020F2
:100A30000146BDE8F08DC1F30A52C1F3130141F440
:100A400080154FF0000BD10702D100186D41521EE6
:100A50000027044640F2FF11384601EB620A3E4689
:100A60008046024600204FF48011FFF7C9FBC219EF
:100A70007141BB1846EB0100B4EB030C75EB000CA5
:100A800004D3E41A65EB000517460E46241908F155
:100A900001006D4180463428E3DDF91946EB06007C
:100AA000091BA84103D24FF0FF32134601E0002298
:100AB00013461BEB070046EB0A51BDE8F04DFFF76C
:100AC00052BFC1F30A52C1F3130140F2FF3341F4A4
:100AD00080119A4202DA00200146704740F2334307
:100AE0009A42A2F2334202DC5242FFF789BBFFF77F
:100AF000E2BE000030B5041E71F1000404DB4FF0CB
:100B00000044404264EB0101141E73F1000405DB54
:100B10001C464FF00043524263EB0403994208BF66
:100B2000904230BD064C074D06E0E06840F00103FE
:100B300094E8070098471034AC42F6D3FFF7FCFA6C
:100B400094690008B46900080EB540F2334102917F
:100B50000021CDE900110A460B46FFF713FF03B051
:100B600000BD30B58C1810F8012B12F00F0301D125
:100B700010F8013B120906D110F8012B03E010F820
:100B8000015B01F8015B5B1EF9D101E001F8013B5B
:100B9000521EFBD1A142E6D3002030BDFEE700008B
:100BA00000B58BB04FF6FF71002000910590CDE9A4
:100BB00001100390049006900120079008900E20E9
:100BC000099069460A4800F08DF908B100F013F960
:100BD0000221074800F010F908B100F00CF90448B0
:100BE00000F04EFD002801D000F005F90BB000BD6B
:100BF00054010020002103E00722521EFDD2491CAF
:100C00008142F9D37047000070B50A2400250728F7
:100C100024D80F2922D844EA002040EA01111048C4
:100C2000A0F108040270437055228270C2700271F4
:100C300042718271C271034625700822002000F0C3
:100C4000A3F8656007E00120FFF7D4FF6068401C4F
:100C50006060642802D820780028F4D070BD0000BD
:100C6000A400002070B50825002407282CD80F29DF
:100C70002AD845EA002040EA0111002A01DA504250
:100C800002B21248150A0570427055228270C27075
:100C90001A0E02711A0C42711A0A8271C371A0F104
:100CA000080503462C700822002000F06DF86C60E7
:100CB00007E00120FFF79EFF6868401C6860642819
:100CC00002D828780028F4D070BD0000A4000020CD
:100CD00070B501230025072824D80F2922D843EA1C
:100CE000002040EA01111048A0F1080402705522CA
:100CF00042708270C270027142718271C271034689
:100D000025700822002000F03FF8656007E0012010
:100D1000FFF770FF6068401C6060642802D820788C
:100D20000028F4D070BD0000A400002070B500229F
:100D30001546072824D80F2922D842EA0020114A54
:100D400040EA01115520107050709070D0701071F1
:100D500050719071D071A2F10804134625700822D9
:100D6000002000F011F8656007E00120FFF742FF66
:100D70006068401C6060642802D820780028F4D0A5
:100D800070BD0000A400002070B5002488B01E468D
:100D9000254650B10420CDE9011000BFCDE9035232
:100DA0008DF814504FF6FE7506E002950091F5E7B8
:100DB000641CA4B2AC420CD8074800F07FF90028AC
:100DC000F6D006AB32466946034800F027F8002803
:100DD00000D0012008B070BD54010020014800F08F
:100DE0003DBD000020030020014800F037BD000099
:100DF000DC0200207047704790F82020012A07D0BD
:100E0000022A05D0416A41F48021416201207047E5
:100E1000006842690A43426100207047F0B590F8CB
:100E200020500468A468012D05D0022D03D0416A2A
:100E300041F4802153E014F0406F01D1E5004BD51F
:100E4000C4F30164022C03D9416A41F4000146E075
:100E50000125A5401D608D684FF4C0739DB1CE681B
:100E600035434E6845EAC605066803EB0417F5519D
:100E70004FF4C275076805EB04150E697E51097DB4
:100E8000012905D009E00E88CD6845EA4655EBE713
:100E900001684E5946F480764E511179D2F80550CA
:100EA0004FF4C67641EA0525016806EB04168D511C
:100EB0001178D2F801204FF4C47541EA022102688A
:100EC00005EB04155151006803EB0411425842F040
:100ED000010242500020F0BD416A41F4001141621C
:100EE0000120F0BD10B590F820300268012B07D02A
:100EF000022B05D0416A41F480214162012010BDDE
:100F0000D2F8000240F00100C2F80002087D00F0B3
:100F10001F0301209840D2F81C328343C2F81C32D0
:100F2000CB69B3B9D2F80C328343C2F80C328C8946
:100F30004B6864F31F434C6902EBC404C4F84032AD
:100F40000C890B6864F31F434C6902EBC404C4F8BA
:100F50004432CB69012B16D1D2F80C320343C2F8CC
:100F60000C320C884B6864F31F434C6902EBC404D9
:100F7000C4F840320C89CB6864F31F434C6902EB20
:100F8000C404C4F844328B69002BD2F804320FD069
:100F900053EA0003C2F804320B69002BD2F8143272
:100FA00008D00343C2F81432096A012904D008E0CA
:100FB0008343EFE78343F5E7D2F81C120143C2F8FD
:100FC0001C12D2F8000220F00100C2F8000200203A
:100FD00010BD704730B590F82040012C05D0022C90
:100FE00003D0416A41F480215DE00468002955D0B6
:100FF0002469A40754D04FF4D874056804EB011495
:101000002D5915F00405956005682D594ED0ED0851
:10101000556005682C5904F00204D4604FF4DA746A
:10102000056804EB01142D5905F00F0515610568DD
:101030002D59C5F30725956105682C59240C546179
:101040004FF4DC72046802EB0112A4581C700468AF
:10105000A458240A5C700468A458240C9C7004688A
:10106000A258120EDA704FF4DE72046802EB01121D
:10107000A4581C710468A458240A5C710468A4581C
:10108000240C9C710468A258120EDA71006881B1B8
:10109000016941F020010161002030BDE468A8E74A
:1010A000416A41F400114162012030BD6D0D1560AF
:1010B000AFE7C16841F02001C160EDE702460020C2
:1010C00092F82010012901D002290CD111688A68F8
:1010D000520100D501208A68120100D5401C8968A0
:1010E000C90000D5401C70472DE9F05F0546006837
:1010F00000244669D0F804908768D0F80CB0D0F886
:1011000010A0D0F81880F10748D0F90714D00121B9
:101110008160B80703D5284600F0DFFA0CE07807B5
:1011200002D54FF4006407E0380702D54FF480542D
:1011300002E0284600F0D0FAF80516D529684FF4E9
:1011400080708860B80503D5284600F0C8FA0CE026
:10115000780502D544F4005407E0380502D544F47C
:10116000804402E0284600F0B9FAF80316D5296851
:101170004FF480308860B80303D5284600F0B1FAF8
:101180000CE0780302D544F4004407E0380302D5AC
:1011900044F4803402E0284600F0A2FA300707D574
:1011A0005FEACB6004D52968102044F40074C8605D
:1011B00070074FF0080707D55FEA0B7004D5286861
:1011C000C760284600F05AF9B00706D52868C068FD
:1011D000800702D0284600F053F9700607D55FEA71
:1011E000CA6004D52968102044F480640861B00600
:1011F00007D55FEA0A7004D528680761284600F021
:101200003BFAF00606D528680069800702D0284618
:1012100000F033FAB00308D55FEAC96005D5296844
:1012200010204860284600F029FAF00307D55FEA4D
:10123000097004D528684760284600F053FA300446
:1012400046D55FEA497040D5F00504D55FEAC8701D
:1012500001D044F00104B00504D55FEA887001D5DF
:1012600044F00204700504D55FEA487001D544F0EB
:101270000404300529D518F0700F26D008F070004E
:10128000402815D006DC102809D020280AD03028A4
:1012900016D10AE050280ED0602811D10EE044F09B
:1012A00008040DE044F010040AE044F0200407E0D4
:1012B00044F0400404E044F0800401E044F480740D
:1012C0002868816921F070018161296804204860E3
:1012D000002C05D0686A204368622846FFF779FE33
:1012E000BDE8F09F70B5040003D094F8200010B161
:1012F00004E0012070BD204600F082F820680168FB
:1013000041F00101016000F02BFD0546052604E0D7
:1013100000F026FD401B0A2811D820684068C0074D
:10132000F6D02068016821F00201016000F018FD8C
:1013300005460BE000F014FD401B0A2806D9606A40
:1013400040F40030606284F82060D2E72068406892
:101350008007EFD4207E0128206801683DD021F06D
:1013600080010160607E01282068016838D021F08A
:1013700040010160A07E01282068016833D021F07F
:1013800020010160E07E0128206801682ED041F034
:1013900010010160207F01282068016829D021F018
:1013A00008010160607F01282068016824D021F0D5
:1013B00004010160D4E902010843D4E90412114395
:1013C00008436168491E08432168C86100206062C3
:1013D000012084F82000002070BD41F08001C0E7AA
:1013E00041F04001C5E741F02001CAE721F01001BA
:1013F000CFE741F00801D4E741F00401D9E700004C
:1014000010B586B00021009101910291039100680E
:10141000174988422AD11748C16941F00071C1615A
:10142000C16901F000710491816941F00401816199
:101430008069114C00F0040004904FF400600090AB
:101440006946204600F07EFBA01400900220019027
:10145000032003906946204600F074FB002205211A
:10146000142000F0EFFC142000F0DEFC06B010BDEC
:101470000064004000100240000801407047000076
:1014800030B589B06B4602AA0021FFF7A3FD6C4975
:10149000009A00280A60019A4A6006D10698694AB3
:1014A000C1B2049818B10398106009B030BD029819
:1014B00010600829F9D1029C6349644A644B1B2CD3
:1014C0001AD02B2C29D03B2C38D04B2C47D00121C3
:1014D000604A1F2C54D02F2C54D03F2C54D04F2C6A
:1014E00054D05D495D4A1C2C63D02C2C67D03C2C19
:1014F0006BD04C2C70D04AE0BDF8004064BA0C8030
:10150000BDF8021049BA118001999DF8072009BA67
:1015100021F0FF011143196039E0BDF8004064BAC1
:101520004C80BDF8021049BA518001999DF80720FE
:1015300009BA21F0FF011143596028E0BDF80040CD
:1015400064BA8C80BDF8021049BA918001999DF867
:10155000072009BA21F0FF011143996017E0BDF897
:10156000004064BACC80BDF8021049BAD18001991C
:101570009DF8072009BA21F0FF011143D96006E068
:10158000117004E0517002E0917000E0D1704FF4EE
:10159000A2759DF800206B1C5C1C4FF6FF71942A0D
:1015A00020D09C2A81D1A84233D19DF807002C4A33
:1015B0003FE09DF800300B709DF80110E0E79DF8CA
:1015C00000304B709DF80110DCE79DF800308B7007
:1015D0009DF80110D8E7FFE79DF80030CB709DF82B
:1015E0000110D3E7A84203D19DF807001D4A20E06F
:1015F000984208D19DF807201B4B9DF8065001EA40
:10160000022215431D80A042CCD19DF80700174A45
:101610000FE0984208D19DF80720154B9DF8065021
:1016200001EA022215431D80A042BBD19DF80700AC
:10163000104A01EA00209DF806100143118034E7AA
:10164000760000206C000020AC000020B4000020D8
:10165000AC030020BC000020C0000020C40000201B
:10166000700000200C0000200E0000201000002060
:10167000720000207400002070477047704700001F
:1016800070B5044690F82000012804D0606A40F448
:101690000020606218E0022084F8200020680168C1
:1016A00021F00101016000F05BFB05460EE000BF88
:1016B00000F056FB401B0A2808D9606A40F400304D
:1016C0006062052084F82000012070BD2068406819
:1016D000C007EDD1606270BD7047704770477047BA
:1016E00070477047704710B590F82110002202290A
:1016F00005D00421816380F82020012010BD0168FD
:101700000B6823F00E030B6001680B6823F00103E4
:101710000B6090F84030C46B012101FA03F3636061
:1017200080F8211080F82020104610BD2DE9F05FD0
:1017300090F821100024022903D0042181630124A0
:1017400085E001680A6822F00E020A6001680A68F2
:1017500022F001020A603F4E3E4FB215DFF8F4C09E
:10176000DFF8F090DFF8ECA0DFF8E8B0DFF8E4E0B5
:101770000168783F13011502ACF1640CA9F150091E
:10178000AAF13C0AABF1280BAEF1140E4FF480180D
:10179000B14227D9B9420ED0614512D049451DD07A
:1017A000514518D0594518D0714501D1424615E030
:1017B000294EB14201D1012210E0274E1436B14228
:1017C00001D110220AE0244E2836B14206D0224A26
:1017D0003C32914201D11A4600E02A461E49091FB7
:1017E0000A602BE0B94213D0614517D0494522D099
:1017F00051451DD059451DD0714501D142461AE0D1
:10180000B14202D14FF0807215E0134EB14201D1C6
:10181000012210E0104E1436B14201D110220AE02C
:101820000D4E2836B14206D00B4A3C32914201D1CE
:101830001A4600E02A46074980394A60012180F8AB
:101840002110002180F82010416B01B1884720460B
:10185000BDE8F09F80000240080402402DE9F05FDF
:10186000C16B0A6801680B68046C4FF0040808FA41
:1018700004F8844D844E854FDFF814C2DFF81492CB
:10188000DFF814A2DFF814B2DFF814E218EA020F4E
:1018900065D05FEA437862D50A68920603D40A6885
:1018A00022F004020A60DFF8F0814FF480620168E0
:1018B00008F1140813011402414524D9A9420DD09E
:1018C000B1420FD0B9421AD0614515D0494515D063
:1018D000514501D1120312E0594501D104220EE015
:1018E000714501D140220AE06D4D1435A94206D060
:1018F0006B4A2832914201D11A4600E022466749DC
:10190000091F0A6029E0A94213D0B14215D0B9429B
:1019100020D061451BD049451BD0514502D14FF421
:10192000800217E0414502D14FF0806212E0594534
:1019300001D104220EE0714501D140220AE0584D48
:101940001435A94206D0564A2832914201D11A468E
:1019500000E022464B4908394A60C16A71E04FF005
:10196000020808FA04F818EA020F70D05FEA8378D8
:101970006DD50A68920606D40A6822F00A020A6047
:10198000012180F82110DFF810814FF40072016806
:1019900008F1140813011402414524D9A9420DD0BD
:1019A000B1420FD0B9421AD0614515D0494515D082
:1019B000514501D1120312E0594501D102220EE036
:1019C000714501D120220AE0354D1435A94206D0D7
:1019D000334A2832914201D11A4600E022462F496B
:1019E000091F0A6029E0A94213D0B14215D0B942BB
:1019F00020D061451BD049451BD0514502D14FF441
:101A0000001217E0414502D14FF0007212E0594533
:101A100001D102220EE0714501D120220AE0204DC1
:101A20001435A94206D01E4A2832914201D11A46E5
:101A300000E02246134908394A60002180F820104E
:101A4000816A00291CD0BDE8F05F0847FFE7082540
:101A5000A540154214D01A0712D50A6822F00E02CA
:101A60000A6090F84020C36B012101FA02F25A602B
:101A7000816380F82110002180F82010016BE0E7DD
:101A8000BDE8F09F080002401C0002403000024008
:101A900044000240580002406C000240080402402A
:101AA0001C04024030B560B11A4B026814219A42FE
:101AB00009D2194B1344B3FBF1F1890001641749B2
:101AC0000AE0012030BD134B5B421344B3FBF1F13C
:101AD000890001640F490839C163022180F821108F
:101AE000136843F6F0718B43F0E901142143D0E908
:101AF00002452C43214304692143446921438469FD
:101B0000214319431160002141630122427701778B
:101B1000084630BD08040240F8FFFDBF0000024047
:101B200070B5044600F01CF90546601C02D004485C
:101B30000078044400F014F9401BA042FAD370BDB1
:101B4000880000202DE9F84FDFF8C891002409F142
:101B5000040A0AF1040B23460F270BF1040ED1E00F
:101B60000125A54006EA0502AA4276D1DFF8A8C100
:101B70004E68A6EB0C0866452BD00DDC032E34D046
:101B800005DC36B3012E19D0022E2FD11BE0112E09
:101B900016D0122E2AD119E0B8F5881F19D006DC0C
:101BA000B8F5803F15D0B8F5801F1FD111E0B8F50A
:101BB000001F0ED0B8F5041F18D10AE0CB6815E05D
:101BC000CB681B1D12E0CB6808330FE0CB680C33E9
:101BD0000CE08B682BB1012B4FF0080303D045615B
:101BE00004E0042302E0056100E00023FF2A01D89D
:101BF000064601E000F104064FEA840501D9A5F18B
:101C00002005D6F8008007FA05FC28EA0C0803FA3C
:101C100005F548EA0508C6F800804D68ED0070D566
:101C20003E4DAE6946F00106AE61AD6924F0030693
:101C300005F0010500953A4D06EB050CDCF808505F
:101C4000A607360F07FA06F825EA0805DFF8D4805C
:101C5000404503D14FF0000825E052E0DFF8C8808E
:101C6000404502D14FF001081DE0DFF8C08040453B
:101C700002D14FF0020816E0DFF8B480404502D1EF
:101C80004FF003080FE0DFF8AC80404502D14FF081
:101C9000040808E0DFF8A080404502D14FF00508B5
:101CA00001E04FF0060808FA06F848EA0508CCF803
:101CB00008804D68D9F80060ED034D4601D5164304
:101CC00000E096432E604D68DAF80060AD0355469B
:101CD00001D5164300E096432E604D68DBF80060A6
:101CE000ED025D4601D5164300E096432E604D6837
:101CF000DEF80060AD02754601D5164300E096435C
:101D00002E60641C0A681646E2407FF429AFBDE8E5
:101D1000F88F000000040140000011100010024084
:101D20000000014000080140000C0140001001408B
:101D30000014014000180140001C01408068084068
:101D400000D001207047C26821EA02030A4043EA3A
:101D50000241016170470AB1016170470904FBE764
:101D600001488068704700008800002002488168B0
:101D7000027811448160704788000020074810B540
:101D8000016841F010010160032000F07BF80F2092
:101D900000F006F800F024F8002010BD00200240FA
:101DA00070B50D4D04464FF47A712878B1FBF0F010
:101DB0000A490968B1FBF0F000F0F2FA48B9102CBA
:101DC00007D200222146501E00F03CF800206C6033
:101DD00070BD012070BD000088000020940000202C
:101DE0000F4808B5816941F001018161816901F005
:101DF00001010091C16941F08051C161C0690022B7
:101E000000F0805000900F21901E00F01BF8054854
:101E1000416821F0E06141F00071416008BD0000BF
:101E20000010024000000140002809DB00F01F0202
:101E3000012191404009800000F1E020C0F800112C
:101E400070470000F0B40E4B1B680C46C3F302232E
:101E5000C3F10705042D00D90425191D072901D256
:101E6000002300E0DB1E012606FA05F1491E214091
:101E700099409E40761E16403143F0BC01F03CBBB9
:101E80000CED00E0064900F0070208684FF6FF037A
:101E9000184040EA0220034A1043086070470000DF
:101EA0000CED00E00000FA052DE9F0470F460500B3
:101EB00061D0434E306800F00700B84209D2306864
:101EC00020F0070038433060306800F00700B84267
:101ED00051D128683B4C810712D5400703D5606873
:101EE00040F4E06060602878000703D5606840F443
:101EF000605060606068A96820F0F000084360608E
:101F00002878C00728D06868012810D021680228E6
:101F100010D0890700292EDA616821F003010143FE
:101F20006160FFF71DFF804641F288390DE02168AE
:101F30008903EFE78901EDE7FFF712FFA0EB080146
:101F4000494502D90320BDE8F0876068696800F060
:101F50000C00B0EB810FEFD1306800F00700B84201
:101F60000BD9306820F0070038433060306800F04B
:101F70000700B84201D00120E5E72878400705D5E1
:101F80006068E96820F4E060084360602878000732
:101F900006D56068296920F4605040EAC10060609D
:101FA00000F038F86168084AC1F30311515CC84079
:101FB0000649086006480068FFF7F2FE0020C2E705
:101FC00000200240001002404868000894000020F1
:101FD0008C0000200448054900684968044AC1F3A0
:101FE0000221515CC840704794000020001002405C
:101FF000586800080448054900684968044AC1F364
:10200000C221515CC840704794000020001002407B
:102010005868000812A185B00FC98DE80F0014A000
:10202000144A006804905168134801F00C03042B13
:1020300010D0082B0ED1C1F38343C9031DF8030050
:102040000AD5516804AAC1F34041515C0A4A504381
:10205000B0FBF1F005B0704708494843FAE70000CB
:1020600002030405060708090A0B0C0D0E0F1010D9
:10207000010200000010024000127A0000093D0039
:102080002DE9F84F040070D02078C04DC00749D02A
:102090006868C0F38100012807D06868C0F3810038
:1020A000022809D16868C00306D52868800339D59D
:1020B00060680028E7D035E06068B0F5803F0BD05D
:1020C00010B1B0F5A02F11D0286820F4803028601E
:1020D000286820F4802002E0286840F480302860DE
:1020E000606890B1FFF73CFE06460AE0286840F4BD
:1020F00080202860F0E700BFFFF732FE801B6428D5
:1021000073D828688003F7D50CE0FFF729FE064650
:1021100005E000BFFFF724FE801B6428F0D8286884
:102120008003F7D420789A4E80074FF001094FF0D2
:10213000000839D5686810F00C0F07D06868C0F344
:102140008100022809D16868C00306D42868800786
:1021500014D52069012808D110E02069B0B1C6F873
:102160000090FFF7FDFD074605E00AE1FFF7F8FDE7
:10217000C01B0228C4D828688007F7D52868616981
:1021800020F0F80040EAC10028600DE0C6F80080A9
:10219000FFF7E6FD074604E0FFF7E2FDC01B02285B
:1021A00023D828688007F7D4207800072CD57948F1
:1021B000A169D9B1C0F80090FFF7D2FD074604E04D
:1021C000FFF7CEFDC01B02280FD8686A8007F7D53D
:1021D00071484FF4FA510068B0FBF1F0009000BF75
:1021E0000098411E0091FAD20EE080E0C0F8008015
:1021F000FFF7B6FD074604E0FFF7B2FDC01B02285B
:1022000075D8686A8007F7D42078400760D5E869F8
:102210000027C00008D4E86940F08050E861E86910
:10222000012700F0805000905C480168C90513D474
:102230000168834641F480710160FFF791FD824699
:1022400006E000BFFFF78CFDA0EB0A0064284ED823
:10225000DBF80000C005F5D5E06801280AD008B118
:10226000052813D0286A20F001002862286A20F08F
:10227000040002E0286A40F001002862E06841F2B0
:10228000883B98B1FFF76CFD82460BE0286A40F06E
:1022900004002862EEE700BFFFF762FDA0EB0A0131
:1022A00059455AD8286A8007F6D50CE0FFF758FD43
:1022B000824605E0FFF754FDA0EB0A0159454CD8D2
:1022C000286A8007F6D41FB1E86920F08050E861E1
:1022D000E06988B36968C1F38101022944D002280A
:1022E000C6F8608004D0FFF73BFD044638E034E0D8
:1022F000FFF736FD074604E0FFF732FDC01B02285A
:102300002BD828688001F7D4206AB0F5803F05D12A
:102310006868A16820F4003008436860D4E90801C7
:102320000843696821F4741108436860C6F8609036
:10233000FFF716FD044606E025E000BFFFF710FD9D
:10234000001B022809D828688001F7D51BE000BFD0
:10235000FFF706FD001B022802D90320BDE8F88F15
:1023600028688001F4D40EE00128F7D06868226A5A
:1023700000F48031914204D1616A00F47010884207
:1023800001D00120EAE70020E8E700000010024049
:10239000000042428004424294000020007000404D
:1023A00010B5401EB0F1807F01D3012010BD4FF069
:1023B000E02460610F21601701F09EF80020A06109
:1023C00007202061002010BD7047704770B590F85D
:1023D0003C20012A2CD0012480F83C40022280F8C5
:1023E0003D2003685A689D6822F070060A683243EF
:1023F0005A60104B02689A420ED00F4B9A420BD093
:10240000B2F1804F08D00D4B9A4205D00C4B9A4246
:1024100002D00C4B9A4204D1496825F0800319433D
:10242000916080F83D40002180F83C10084670BD66
:10243000022070BD002C0140003401400004004027
:1024400000080040000C004010B5040003D094F8D0
:102450003D0010B107E0012010BD002084F83C00D1
:10246000204600F01FF8022084F83D00211D20685E
:1024700000F078FE012084F8460084F83E0084F8DD
:102480003F0084F8400084F8410084F8420084F85A
:10249000430084F8440084F8450084F83D0000209F
:1024A00010BD000008B51E4A01681E4891420ED1B9
:1024B000C16941F00201C161C069002200F002005F
:1024C000009005211D20FFF7BDFC1D2022E0164ACB
:1024D00091420ED1C16941F00401C161C06900227D
:1024E00000F00400009005211E20FFF7ABFC1E2029
:1024F00010E00E4A914211D1C16941F01001C16151
:10250000C069002200F01000009005213620FFF77E
:1025100099FC3620BDE80840FFF786BC08BD0000E6
:10252000000400400010024000080040001000407D
:1025300090F83D10012901D001207047022180F858
:102540003D100168CA6842F00102CA6000680E4985
:1025500088420ED00D4988420BD0B0F1804F08D090
:102560000B49884205D00B49884202D00A4988426B
:1025700004D1816801F00701062903D0016841F008
:102580000101016000207047002C0140003401402F
:102590000004004000080040000C004070B50446F4
:1025A00090F83C00012817D0012584F83C50022007
:1025B00084F83D002068826822F0770222F47F428E
:1025C00082600868502830D00DDC20284DD005DC12
:1025D00098B310283BD148E0022070BD302844D089
:1025E000402834D139E0602828D0702806D0B0F5D2
:1025F000805F2CD0B0F5005F29D10AE0CB68D1E92B
:102600000121206800F0F4FD2068816841F0770125
:1026100009E0CB68D1E90121206800F0E9FD2068DC
:10262000816841F48041816011E0CA68496820688E
:1026300000F0F0FD5021206807E016E0CA68496804
:10264000206800F0F8FD6021206800F0DBFD84F8D0
:102650003D50002084F83C0070BDCA68496820687D
:1026600000F0D8FD40212068EFE7226801461046BF
:10267000EBE7704770B50446006801694FF000054C
:10268000C943890715D4C168C943890711D4E91E14
:10269000016101202077206880698007204602D0F0
:1026A000FFF7E7FF04E000F098F8204600F096F806
:1026B000257720680169C943490717D4C168C94310
:1026C000490713D46FF004010161022020772068CC
:1026D000806910F4407F204602D0FFF7CAFF04E073
:1026E00000F07BF8204600F079F825772068016932
:1026F000C943090716D4C168C943090712D46FF04A
:1027000008010161042020772068C0698007204605
:1027100002D0FFF7AEFF04E000F05FF8204600F0C3
:102720005DF8257720680169C943C90617D4C168D7
:10273000C943C90613D46FF0100101610820207746
:102740002068C06910F4407F204602D0FFF791FF57
:1027500004E000F042F8204600F040F825772068B9
:102760000169C943C90708D1C168C943C90704D170
:10277000891E0161204600F033F820680169C943D1
:10278000090609D4C168C943090605D46FF0800160
:1027900001612046FFF718FE20680169C943490618
:1027A00009D4C168C943490605D46FF040010161ED
:1027B000204600F043F820680169C94389060BD41C
:1027C000C168C943890607D46FF020010161204622
:1027D000BDE87040FFF7F9BD70BD7047704700005D
:1027E00010B5044600681149884203D120211048E1
:1027F000FFF7A9FA0F492068884215D10E49487899
:10280000401CC0B2487001280AD002280AD0032810
:102810000AD1002048700520BDE8104000F01CBC23
:102820000420F9E70620F7E710BD0000000400408F
:10283000000C014000100040080000207047704765
:1028400070470000F8B5026804461068D168536903
:1028500010F00F0F4FF0000554D003F0010601F403
:10286000907737435FD0C20705D0CA0503D5226CE5
:1028700042F001022264420705D5DA0703D0226C38
:1028800042F002022264820705D5DA0703D0226CE7
:1028900042F004022264020707D501F0200232430D
:1028A00003D0226C42F008022264226C002A35D048
:1028B000800604D5880602D5204600F0EEFC20688C
:1028C0004069216CC0F3801001F0080101432046EB
:1028D00025D000F0CAFC2068416949061BD5416932
:1028E00021F040014161A06BA8B158494163A06B40
:1028F000FEF71CFF002811D0A06B416B01B0BDE8B2
:10290000F040084783060ED58B060CD52046BDE85F
:10291000F84000F0C2BC2046FFF792FFF8BDFFF779
:102920008FFF2564F8BD266B2023012E52D1C606E9
:1029300050D5CE064ED510685068009050694006BC
:102940002AD5A16B086840680004000CEAD0A68D67
:102950008642E7D9E0858869202818D0D06820F41D
:102960008070D0602068416921F0010141612068D8
:10297000416921F04001416184F83E3025632068BF
:10298000C16821F01001C160A06BFEF7ACFEA08D04
:10299000E18D401A81B219E0A08DE18D401A81B21B
:1029A000E08D0028BED00029BCD0D06820F4907003
:1029B000D0602068426922F00102426184F83E3012
:1029C00025632068C26822F01002C2602046FFF72B
:1029D00036FFF8BD05062BD50D0629D594F83D0028
:1029E0002128F6D1A068B0F5805F01D12069B0B18F
:1029F000206A411C2162216800784860E08C401EFA
:102A00000004000CE084E4D12068C16821F080015A
:102A1000C1602068C16841F04001C160F8BD206A12
:102A20000088C0F308005060206A801C2062E5E73F
:102A30004006F3D54806F1D5D168204621F0400183
:102A4000D16084F83D3000F022F9F8BD5B32000817
:102A500070B5040004D094F83D00002510B106E0E4
:102A6000012070BD84F83C50204600F023F824205B
:102A700084F83D002068C16821F40051C1602046FF
:102A800000F066FC2068016921F490410161206832
:102A9000416921F02A0141612068C16841F4005177
:102AA000C1602564202084F83D0084F83E000020A9
:102AB00070BD0000F0B585B000240094019402942C
:102AC000039406463E4F03683E49022003223E4DD2
:102AD000BB4251D18B6943F480438B618B6903F412
:102AE000804304938B6943F004038B6189690392EB
:102AF00001F0040104910102CDE900106946284665
:102B0000FFF720F82815CDE900046946284602940D
:102B1000FFF718F82E4D2D488027C5E90004C5E9B8
:102B200002472C616C61AC612846EC61FEF7BAFF8C
:102B300008B1FEF760F9B5636E62254D2348443550
:102B4000143801C5102091C5214845F8104944307A
:102B50006C61AC61EC61FEF7A5FF08B1FEF74BF9C3
:102B600075630022052125206E62FFF76BF9252091
:102B7000FFF75AF905B0F0BD164EB342FAD1CB6952
:102B800043F40033CB61CB6903F4003304938B69C6
:102B900043F004038B618969039201F004010491FD
:102BA0000421CDE9001069462846FEF7CBFF082036
:102BB000CDE90004694628460294FEF7C3FFD9E731
:102BC0000038014000100240000801405800024057
:102BD000DC02002000440040704700002DE9F8436B
:102BE000044690F83D001F4616460D4620284CD15D
:102BF000C5B1BEB194F83C00012846D0012084F84C
:102C00003C004FF00008C4F84080212084F83D00CB
:102C1000FFF7A6F8A6848146E684A068B0F5805F39
:102C200003D004E00120BDE8F883206928B12E46D6
:102C30005FF0000584F83C800EE00026FAE7802172
:102C4000204600F0E1FBA0B9AEB116F8010B2168F7
:102C50004860E08C401EE084E08C4B464FF0000260
:102C600000970028EBD14FF04001204600F0CCFB4C
:102C700030B10320D7E735F8020BC0F30800E6E7D0
:102C8000202084F83D000020CDE70220CBE77047EC
:102C9000FEE700002DE9F0410126254C254F264D89
:102CA000012818D0207878B110212846FFF746F87F
:102CB00098B108212846FFF741F870B10121384644
:102CC000FFF73CF8012808D010212846FFF736F816
:102CD00001281FD02AE02670E6E70A20FEF720FF31
:102CE0000020207010212846FFF728F858B108214D
:102CF0002846FFF723F848B101213846FFF71EF8B0
:102D0000012805D012E00120BDE8F0810220FBE798
:102D10000320F9E708212846FFF710F8012805D11C
:102D200001213846FFF70AF800B926700020EBE7CA
:102D30009800002000080140001801400F4810B51D
:102D40000D4901600621416000214FF4003281608D
:102D5000C0E90312D2004261017641768176C176E4
:102D600001774177FEF7BEFA002803D0BDE8104096
:102D7000FEF741B810BD000000640040540100207F
:102D80000D4808B5416941F00101416140690022E7
:102D900000F00100009005210E20FFF753F80E20EF
:102DA000FFF742F8002205210F20FFF74BF8BDE89E
:102DB00008400F20FFF738B80010024010B5074A4E
:102DC0000021074801F0DCFF064C044A0021206086
:102DD0002432054801F0D4FF606010BD006800088F
:102DE0008130000880000020893000082DE9F04F74
:102DF00085B00025314800950195029503958169BC
:102E000041F040018161816901F0400104918169D3
:102E100041F004018161816901F00401049181693B
:102E200041F0080181618069254F00F0080004909D
:102E3000012220213846FEF78EFFDFF888A04FF4EC
:102E40008079002249465046FEF785FFDFF878B0CA
:102E5000012220215846FEF77EFF4AF61800CDE9F0
:102E600000050124694602943846FEF76BFE2026D1
:102E70004FF00308CDE90064CDE9024869463846C1
:102E8000FEF760FE02278DE8B00069465046FEF767
:102E900059FE01AACDF8009082E8B000694650467C
:102EA000FEF750FECDE90064CDE902486946584678
:102EB000FEF748FE05B0BDE8F08F000000100240AC
:102EC0000018014000080140000C014010B586B018
:102ED0000024174800940194029403940494134925
:102EE0000594016041F61F41C0E9011442F20F71DF
:102EF000C0E903148461FFF7A7FA08B1FDF77BFF6F
:102F00004FF48050009069460948FFF747FB08B12D
:102F1000FDF771FF049404A905480594FFF756FADC
:102F2000002801D0FDF767FF06B010BD0004004087
:102F30007C01002010B586B000241748009401944D
:102F400002940394049413490594016041F61F41CF
:102F5000C0E901144FF4FA61C0E903148461FFF77A
:102F600073FA08B1FDF747FF4FF4805000906946AF
:102F70000948FFF713FB08B1FDF73DFF049404A9CE
:102F800005480594FFF722FA002801D0FDF733FF2A
:102F900006B010BD00080040C40100201CB500248C
:102FA0000F4800940D490194016041F61F41C0E9AA
:102FB00001144FF47A718461C160FFF745FA08B1DA
:102FC000FDF719FF0094694605480194FFF7FEF9E3
:102FD000002801D0FDF70FFF1CBD000000100040CD
:102FE0000C0200200C4810B50A4901604FF4E13191
:102FF0004160002181600C22C160C0E9041281613E
:10300000C161FFF725FD002803D0BDE81040FDF7A2
:10301000F2BE10BD00380140540200200C4810B52B
:103020000A4901604FF4E1314160002181600C22C6
:10303000C160C0E904128161C161FFF709FD002888
:1030400003D0BDE81040FDF7D6BE10BD00440040DF
:1030500098020020FEE77047084A9421002311706F
:1030600053709370D370137153719371D37113466E
:10307000082200F5A0710020FDF786BE00000020A8
:10308000012001F027FEFBE7012001F023FEFBE712
:1030900010B5FEF76BFE03F0FDF9012803D0BDE883
:1030A000104002F02DBF10BD30B58FB0282168460A
:1030B000FDF7CFF814210AA8FDF7CBF80121080489
:1030C000CDE900100024029402250491CDE90750B7
:1030D0004FF4E01009906846FEF7D2FF0F20CDE9CB
:1030E0000A056802CDE90C4002210AA80E94FEF7F9
:1030F000DBFE0FB030BD00000D48016841F001015A
:10310000016041680B4A1140416001680A4A114060
:103110000160016821F480210160416821F4FE0111
:1031200041604FF41F0181600449C003086070478B
:10313000001002400000FFF8FFFFF6FE08ED00E07F
:103140000148FFF797BA00007C0100200148FFF713
:1031500091BA0000C40100200148FFF78BBA0000BB
:103160000C020020F0B502681C4B1D4D1D4E1E4F79
:103170001E4C4FF0804C984209D0A04207D06045C9
:1031800005D0A84203D0B04201D0B84204D122F009
:10319000700E4A6842EA0E02984209D0A04207D057
:1031A000604505D0A84203D0B04201D0B84203D157
:1031B00022F44075CA682A434D6922F080022A43EE
:1031C00002608A68C2620A688262984201D0A042A4
:1031D00001D10969016301214161F0BD002C014069
:1031E0000004004000080040000C00400034014092
:1031F00010B5846842EA032224F47F440A43224340
:10320000826010BD826822F070020A4342F007011A
:103210008160704710B5036A046A24F001040462F7
:10322000846924F0F00444EA021423F00A020A43F9
:103230008461026210BD10B5036A23F010030362BB
:103240008369046A23F4704343EA023224F0A00342
:1032500043EA01118261016210BD10B5406A00218C
:10326000C185C184FFF7ECFA10BD0168CA6822F479
:103270009072CA6001684A6922F001024A61016BDA
:10328000012904D10168CA6822F01002CA60202115
:1032900080F83E1000210163704708B590F83E1099
:1032A000222901D0022008BD82684FF480539A423F
:1032B00001D1016921B1816A9A421BD04AB10AE069
:1032C0000268816A5268C2F308020A80816A891C16
:1032D00008E0026972B10268526802F07F020A7067
:1032E000816A491C8162C18D491E0904090CC1858E
:1032F00003D019E002685268F1E70168CA6822F059
:103300002002CA600168CA6822F48072CA6001683B
:103310004A6922F001024A61202180F83E10016BC7
:10332000012903D0FFF758FC002008BD00210163EC
:103330000168CA6822F01002CA6001680A68D206F1
:1033400002D50A6849680091818DFFF778FAEBE7AA
:1033500070B5044600680169E26821F440511143E8
:1033600001612169A0680843616908432168CA684E
:1033700041F20C639A430243CA6020684169A26922
:1033800021F44071114341611E492068884202D1F5
:10339000FEF730FE01E0FEF71DFE00EBC00101EB81
:1033A0000012606864218000B2FBF0F3B3FBF1F31C
:1033B0006FF018067343B2FBF0F5B2FBF0F605EBC5
:1033C0008305322303EB0515B5FBF1F5B6FBF1F6EA
:1033D00005F0F00505EB0615B2FBF0F6B2FBF0F0D8
:1033E000B0FBF1F06FF01802504306EB800003EBE6
:1033F0000010B0FBF1F0216800F00F002844886055
:1034000070BD0000003801402DE9F0419846174694
:103410000E460446069D1DE0681C1BD02DB1FEF72C
:103420009FFCA0EB0800A84214D92068C16821F4D1
:10343000D071C1602068416921F001014161202003
:1034400084F83D0084F83E00002084F83C0003200E
:10345000BDE8F0812068006836EA000004D0002052
:10346000B842D9D00020F3E70120F9E70148FFF77F
:10347000E9B90000540200200148FDF735BE000004
:1034800054010020FEE700000FB4054B10B503A95E
:10349000044A029800F028FC10BC5DF814FB000000
:1034A00061480008400100200FB4084B10B504A982
:1034B00002AA039800F018FC044602A9002000F0BC
:1034C000AAFF204610BC5DF814FB0000174400085A
:1034D000490050EAC12018BF04204A0D18BF40F02F
:1034E000010040F2FF72B2EB515F08BF40F00200F2
:1034F000012808BF052070470907090E002804DBD2
:1035000000F1E02080F80014704700F00F0000F197
:10351000E02080F8141D70472DE9F74F144694B051
:103520000021C4E902111599079121F00045C9490C
:103530008D4206DC1599C4E9000117B00020BDE8F2
:10354000F08FC549DFF814A3A9423CDD0799C44EAA
:103550000029C44FC44A1599534619DDFCF7F9FFF9
:10356000554506D0C14AC24BFCF7F3FFC4E9000140
:103570000AE04FF0D352BE4BFCF7EBFF32463B461E
:10358000FCF7E7FFC4E9000117B00120BDE8F08FA8
:10359000FCF73EFF554506D0B44AB54BFCF738FF63
:1035A000C4E900010AE04FF0D352B14BFCF730FF01
:1035B00032463B46FCF72CFFC4E9000117B04FF040
:1035C000FF30BDE8F08FAB49A942159978DB21F0B7
:1035D000004183468846A84AA84BFCF7C0FF00225A
:1035E000A74BFCF715FFFDF7D1F80990FDF7BDF8E3
:1035F00006460F469C4A5346FCF7B1FF43465A46DF
:10360000FCF7AAFF80468A46984A994B30463946CD
:10361000FCF7A5FF2A0D01250B9242465346FCF705
:103620009BFF032DC4E9000139D00B98C1F30A5167
:10363000401A05EB45111139814230DA9148C346F1
:10364000784400EB0510CDF80CA00C90D0E90023D5
:1036500030463946FCF783FF02460B46049106903C
:1036600058460399FCF775FF80468A4602460B468A
:1036700058460399FCF76DFF049B069AFCF769FF17
:1036800083460C9803913946D0E902233046FCF773
:1036900066FF5A46039BFCF75CFF6D1CBDE707986D
:1036A0000028A2BF099817B0BDE8F08F616881F0CB
:1036B00000416160099817B04042BDE8F08FFFE714
:1036C00084461598C1F31301C0F30A50A0F2F530F7
:1036D0004FEA601800F01F06C6F12000139000208A
:1036E0000690079041F4801E05206D4676B1664A2B
:1036F00008EB00017A4452F8213002EB8101B3401B
:103700004A68139922FA01F1194305E05F4908EB71
:103710000002794451F82210A1FB0E27A1FB0C13E3
:103720001A449A4234BF0123002303EB070A05EB36
:103730008003D3E901B70F448F4234BF0121002138
:1037400093448B4411B1934502D903E0934501D2D0
:10375000012100E00021C3E901B7514445F82010E0
:10376000011EA0F10100C1DC0298059F00F100508C
:10377000800F12900298DDE903568000FCF7F5FFF8
:10378000834628460D91FDF7DFF96FF01D02FCF727
:10379000C7FFCDE90E013046FDF7D6F96FF03D02C7
:1037A000FCF7BEFF80468A463846FDF7CDF96FF03C
:1037B0005D02FCF7B5FF0746424653461191FCF700
:1037C00027FEDDE90E23FCF723FE5A460D9BFCF78E
:1037D0001FFE00250E465A4628460D9BFCF7B9FEF3
:1037E000DDE90E23FCF7B5FE42465346FCF7B1FE79
:1037F0003A46119BFCF7B0FEDFF898A0244A5346E6
:10380000FCF7ADFE07468846234A244B314628463E
:10381000FCF7A5FE3A464346FCF7FAFD0746884604
:103820004FF0A842534631462846FCF798FE3A46E8
:103830004346FCF7EDFD159A12F0004F04D0129AA2
:1038400081F0004152421292C4E90001129817B06F
:10385000BDE8F08FFB21E93F7CD90240FB21F93F15
:103860007370032E8A19A33B000040543163621A1F
:1038700061B4D03DFB21394183C8C96D305FE43F5D
:103880000000E03F4C320000C8310000AA310000C7
:10389000182D4454FB21F93D3326A611460B113C4B
:1038A0002DE9FF4D21F0004807460C46B8F1795F3D
:1038B00008DAFCF76BFF002801BF0020324904B092
:1038C000BDE8F08D3A46234610461946FCF747FE00
:1038D000054602462D480E460B460621784400F068
:1038E0005DF82A463346FCF73AFEDDE902238246BC
:1038F0008B4638462146FCF732FE04460F465246B8
:103900005B4628463146FCF72AFE22463B46FCF73A
:1039100020FE07468A464FF0FF3228463146FCF724
:10392000FFFE1B4A90450ADA3A465346FCF711FE61
:1039300004B00022BDE8F04D134BFCF70DBE154A54
:103940004245A8BFA8F500154FF00004B8BF124DBE
:1039500022462B46FCF7FDFD0646884622462B46AE
:1039600000200949FCF7F5FD04460D463A4653464A
:1039700030464146FCF7EDFD04B022462B46BDE83B
:10398000F04DFCF7E9BD00000000F03F802F000083
:103990003333D33F0000E93F0000D23F2DE9F0412F
:1039A0004F1E00EBC7010446D1E9000115461E4633
:1039B00037F006020DD02A463346FCF7D0FD7F1EB5
:1039C00004EBC703D3E90023FCF722FD37F006021E
:1039D000F1D1022F25D0042F13D0062F18BFBDE838
:1039E000F0812A463346FCF7BAFDD4E90A23FCF7F6
:1039F0000FFD2A463346FCF7B2FDD4E90823FCF755
:103A000007FD2A463346FCF7AAFDD4E90623FCF756
:103A1000FFFC2A463346FCF7A2FDD4E90423FCF759
:103A2000F7FC2A463346FCF79AFDD4E90223FCF75B
:103A3000EFFC2A463346FCF792FDD4E90023BDE8AB
:103A4000F041FCF7E5BC00002DE9FF4D054621F0F3
:103A5000004084B00C46B0F1795F0BDA2846FFF7DE
:103A600037FD042808BF00F06FF8284608B021464B
:103A7000BDE8F08D2A460B461046FCF770FD064661
:103A80000F462A462346FCF76AFD804626488A46AA
:103A900032463B4605217844FFF780FF8346109865
:103AA000029160B3214A224B40465146FCF757FD34
:103AB000CDE900015A4640465146029BFCF74FFDB6
:103AC00082468846DDE906014FF0FF32FCF728FE0A
:103AD00052464346FCF73DFD32463B46FCF73FFD70
:103AE000DDE90623FCF735FDDDE90023FCF731FDB8
:103AF00008B02A462346BDE8F04DFCF72DBD0B4625
:103B00005A4630463946FCF72AFD084A084BFCF76E
:103B10007FFC42465346FCF722FD08B02A46234666
:103B2000BDE8F04DFCF774BCBE2E0000495555555C
:103B30005555C5BF0122FCF7F3BD002213461046C0
:103B40001146FCF77EBD0000024A00201107FCF779
:103B5000E7BD000001FDFFFF02E008C8121F08C119
:103B6000002AFAD170477047002001E001C1121FFE
:103B7000002AFBD17047000001490860704700002F
:103B8000440100202DE9FF5FDDE90220010DDDF891
:103B900038B0024318D044F61050A1F2FF3141432F
:103BA0000D140F98012820D0A5EB0B00401C5FEAF4
:103BB000000A4FF00004474EDFF81C91A046504623
:103BC00016D5CAF1000728E00F98012443A2012866
:103BD00008D0002100980F9BC0E90021C0E90243F2
:103BE000BDE8FF9F6FEA0B01F4E7CBF10000DEE7D1
:103BF000074612E0F80707D02246334640464946BA
:103C0000FCF7ADFC804689462246334610461946ED
:103C1000FCF7A5FC04460E467F10002FEAD1DDE933
:103C20000201BAF1000F42464B4602DAFCF797FC5C
:103C300001E0FCF706FD04460E460022284BFCF787
:103C400059FF03D84FF0FF30014607E00022254B13
:103C500020463146FCF7DCFBFCF733FF102409E07B
:103C6000002C0ADB0A220023FCF7F4FD019B303212
:103C70001A55641E50EA0102F2D1641C019AC4F183
:103C8000110314440F9A012A03D0012208430DD1D5
:103C90000AE0084304D000204FF0110B0F9080E79A
:103CA000A3EB0B056D1E0DE05B4504DD4FF000023C
:103CB00005F1010504E003DA4FF00002A5F101056A
:103CC000002AECD000980F99C0E90231C0E9004504
:103CD00086E70000000024400000F03F30000000B4
:103CE0000000F0430000E03F2DE9FF4F95B09B46F8
:103CF0008946064600250FE2252877D1002427466D
:103D0000F84A0121059400E0044316F8013F203BE6
:103D100001FA03F01042F7D130782A2811D06FF061
:103D20002F033078A0F13002092A16D8059A44F002
:103D3000020402EB820203EB42021044761C05905F
:103D4000EFE759F8042B0592002A03DA504244F4B5
:103D50000054059044F00204761C30782E2816D1C9
:103D600016F8010F44F004042A280DD06FF02F023A
:103D70003078A0F13003092B09D807EB870302EB59
:103D80004303C718761CF3E759F8047B761C307898
:103D90006C280FD006DC4C2817D068280DD06A2874
:103DA00014D104E0742810D07A280FD10DE044F427
:103DB00000140AE044F4801401E044F440147278E2
:103DC000824202D104F58014761C761C3078662875
:103DD0000BD013DC582877D009DC002875D0452893
:103DE000F6D04628F4D047281AD19DE118E0632880
:103DF00035D0642879D0652812D195E1702873D028
:103E000008DC6728F1D069286FD06E280DD06F28A4
:103E100006D1B5E073282CD0752875D0782874D0D9
:103E20005A46179990476D1C75E1C4F30250022859
:103E300009D003280DD0D9F8001004280DD00D604A
:103E400009F1040967E1D9F80010EA17C1E9005245
:103E5000F6E7D9F800100D80F2E70D70F0E719F8D9
:103E6000041B8DF8001000208DF80100EA460120A7
:103E700003E059F804AB4FF0FF3061074FF0000149
:103E800002D40DE008F101018846B9420FDA8045FD
:103E9000F8DB1AF808100029F4D108E008F1010154
:103EA00088468142FADB1AF808100029F6D10598F5
:103EB0005B46A0EB080721463846179A00F094FAB3
:103EC000284400EB080507E04DE029E10DE01AF871
:103ED000010B5A4617999047B8F10108F7D25B4693
:103EE00021463846179A13E142E00A220092C4F3B1
:103EF00002524FF0000A022A08D059F804CB032AD4
:103F00004FEAEC710AD00DE029E02AE009F107013F
:103F100021F00702F2E802C1914609E00FFA8CFC99
:103F20004FEAEC71042A03D14FFA8CFC4FEAEC7192
:103F3000002907DA0A460021DCF1000C61EB0201DE
:103F40002D2202E0220504D52B228DF80420012227
:103F500003E0E20701D02022F7E7904659E00A216A
:103F600002E010220DE010214FF0000A00910BE05A
:103F700010224FF0000A44F004040827009203E0E6
:103F800008224FF0000A0092C4F30252022A05D020
:103F900059F804CB0021032A08D009E009F10701F0
:103FA00021F00702F2E802C1914605E01FFA8CFCFD
:103FB000042A01D10CF0FF0C4FF00008220728D58D
:103FC000702806D0009B83F0100353EA0A0305D043
:103FD0000EE040228DF80420012208E05CEA010294
:103FE00006D030228DF804208DF80500022290467C
:103FF000009B83F0080353EA0A030AD15CEA01023A
:1040000001D1620705D530228DF804204FF0010858
:104010007F1E582804D034A003900EA802900DE013
:1040200036A0F9E753466046009AFCF713FC844635
:104030000398825C0298401E029002705CEA0100C4
:10404000F0D1029806A9081A00F1200A600702D5EB
:1040500024F4803400E00127574502DDA7EB0A0075
:1040600000E0002000EB0A01009005984144401A4E
:104070000590E00306D45B462146179A059800F0A8
:10408000B3F90544002706E001A85A46C05D179918
:1040900090476D1C7F1C4745F6DBE0030CD55B4663
:1040A0002146179A059800F09FF9054404E0302056
:1040B0005A46179990476D1C0099481E0090002998
:1040C000F5DC08E0029802995A460078491C0291F2
:1040D000179990476D1CBAF10001AAF1010AF1DCB1
:1040E00065E10000092801003031323334353637BC
:1040F0003839616263646566000000003031323334
:1041000034353637383941424344454600000000D3
:1041100000F058F90544761C307800287FF4ECADA7
:1041200019B02846BDE8F08F620700D4062709F1D0
:10413000070222F0070CFCE80223E14603F00048E6
:104140005FEA080C02D00FF2702C0DE05FEA045C0D
:1041500002D50FF2682C07E05FEAC47C02D00FF2B0
:10416000602C01E0AFF2700C4FF0FF3823F00043F9
:10417000CDF850C065280CD006DC452809D046286B
:104180001DD047283DD13DE0662818D067287ED154
:1041900038E00021112F01DB112000E0781CCDE96F
:1041A000000106A90EA8FFF7EDFCDDE90F010E9A4C
:1041B00003910021009207F1010A04914DE04FF0B4
:1041C00000400097CDE9011006A90EA8FFF7DAFC20
:1041D000DDE90F0203920E9B11990022DDF80CA07D
:1041E0000093049211B9791C00EB010AB7EB0A00A5
:1041F00004D4C0F1FF3007F1010A0490AAEB0700D4
:10420000019044E0012F00DA01270021112F01DD88
:10421000112000E03846CDE9000106A90EA8FFF7FD
:10422000B1FCDDE90F010E9A039100210491009287
:10423000BA4621070CD40399514500DA8A46BAF1EF
:10424000010F05DD009AAAF10101515C302908D067
:10425000B84202DA10F1040F06DA0121CDE90110AB
:1042600015E0AAF10101E9E7002805DC0499014401
:104270000491AAEB000102E0411C514500DD8A4691
:104280000499401A401C01904FF000400290200712
:1042900004D40198504501DBCDF8048000208DF84E
:1042A0004F0002980DF14F07B0F1004F25D02B20A1
:1042B0000E9002984FF0020800280CDA404202905B
:1042C0002D200E9007E00A210298FCF7ADFA30315C
:1042D000029007F8011DB8F10001A8F10108F2DC15
:1042E00002980028EFD1791E0E980870307800F0FF
:1042F000200040F0450007F8020D12A8C01B00F195
:1043000007081498007800B1012000EB0A01019819
:1043100001EBE07105984144401A401E0590E0030E
:1043200006D45B462146179A059800F05DF80544CF
:104330001498007818B15A46179990476D1CE003FD
:1043400024D55B462146179A059800F04DF80544A0
:104350001CE00498002807DBDDE90301884203DD47
:104360000098405C179901E0179930205A46904711
:10437000049805F10105401C04900198401E01902D
:1043800004D12E205A46179990476D1CBAF10001AE
:10439000AAF1010ADDDC05E017F8010B5A4617996E
:1043A00090476D1CB8F10001A8F10108F4DC5B46F0
:1043B0002146179A0598ABE62D0000002B0000005F
:1043C000200000002DE9F041044600251E46174656
:1043D000880404D405E039462020B0476D1C641ED3
:1043E000F9D52846BDE8F0812DE9F04104460025C5
:1043F0001E469046C80301D5302700E020278804D8
:1044000004D505E041463846B0476D1C641EF9D519
:104410002846BDE8F0810A68531C0B601070704795
:1044200000B5244B21F0004287B09A42DCBF002245
:10443000134629DD204B9A4208D140B94FF00100C4
:10444000FFF79AFBFFF779FB07B000BD03DBFFF72F
:1044500071FB07B000BD02AAFFF75EF810F0030180
:1044600004BF0DF1080C9CE80F000DD001200129BC
:104470000ED0022914D00DF1080C00909CE80F001A
:10448000FFF7E2FA07B000BDFFF70AFA07B000BD78
:104490000DF1080C00909CE80F00FFF7D5FA05E03D
:1044A0000DF1080C9CE80F00FFF7FAF907B081F056
:1044B000004100BDFB21E93F0000F07F2DE9F74FEF
:1044C000DF4D0E4690B017462946FBF725FF044600
:1044D00029463046FBF720FF064629463846FBF7BB
:1044E0001BFF12902046FCF770F90D460446FFF7BB
:1044F00097FF4FF0C042D34BFCF731F8DFF848B3D9
:104500004FF000473A465B46FCF723F8FCF770F99A
:1045100082462046294601F0A5F94FF0C042C94B1A
:10452000FCF71DF8FCF764F981463046FCF74DF9BD
:104530000D460446FFF774FF4FF0C042C34BFCF733
:104540000EF83A465B46FBF763FFFA17FCF7E8F80C
:10455000FCF74EF90646BE49FBF7DEFE0290204608
:10456000294601F07FF94FF0C042B64BFBF7F7FF49
:10457000FCF73EF980461298FCF727F904460091B3
:10458000FFF74EFF4FF0C042B04BFBF7E8FF3A4653
:104590005B46FBF73DFFFA17FCF7C2F8FCF728F97A
:1045A0000546AC49FBF7B8FE01902046009901F0A2
:1045B00059F94FF0C042A34BFBF7D1FFFCF718F9B4
:1045C000074651462846FBF7A1FE0E900299FBF7DD
:1045D000A3FE044651463046FBF798FE0D90019924
:1045E000FBF79AFE2146FBF791FE494600900846EC
:1045F000FBF792FE044651460C900846FBF78CFEF2
:104600002146FBF731FE044641460846FBF784FE8F
:10461000834631460846FBF77FFE02990646084668
:10462000FBF77AFE3146FBF71FFE5946FBF71CFEEF
:10463000834639460846FBF76FFE0646294608467C
:10464000FBF76AFE019905460846FBF765FE294619
:10465000FBF70AFE3146FBF707FE06464946384699
:104660000D9DFBF753FE29460B90FBF755FE0746C1
:10467000494640460E9DFBF749FE80462946FBF71A
:104680004BFE3946FBF742FE0790214658460E9DE9
:10469000FBF73CFE07462946FBF73EFE0546214652
:1046A0003046DDF834B0FBF731FE04465946FBF7DF
:1046B00033FE2946FBF72AFE4FF0FF31FBF79CFE45
:1046C000834640460199FBF727FE054602990B9861
:1046D000FBF722FE2946FBF719FE059020460299BA
:1046E000FBF71AFE044638460199FBF715FE2146F2
:1046F000FBF70CFE4FF0FF31FBF77EFE00990190B7
:104700000846FBF709FE074605993C460846FBF7B5
:1047100003FE079905460846FBF7FEFD2946FBF711
:10472000A3FD2146FBF7A0FD099048460099FBF741
:10473000F3FD0099FBF7F0FD064650460099FBF7A4
:10474000EBFD0199FBF7E5FD04460599FBF7E4FD58
:10475000054659460798FBF7DFFD2946FBF784FD20
:104760003146FBF7D3FD0121FBF746FE80463A496F
:104770000C98FBF7CBFD01463846FBF7CDFD05460F
:1047800059460846FBF7C8FD064621460846FBF792
:10479000C3FD3146FBF768FD2946FBF765FD04467E
:1047A00002210998FBF728FE2146FBF7B5FD0446D8
:1047B00041460846FBF7B0FD2146FBF7A7FD04463E
:1047C00010F1FF4F04D34FF0FF3013B0BDE8F08F6E
:1047D0000998FBF7FAFF06460D462046FBF7F5FF62
:1047E00001F090F807460C464046FBF7EEFF3A46CC
:1047F0002346FBF70DFE4FF0FF32FBF791FF3246E9
:104800002B46FBF71EFFFBF7F3FF144C054629462A
:10481000A0600798FBF780FD5946FBF725FD00993E
:10482000FBF7ACFD606029460598FBF775FD019923
:10483000FBF71AFD0099FBF7A1FD20600020C4E7FB
:1048400035FA8E3CB85E5AC0DCBF5240B85E5A4062
:10485000D0B3DD3FD0B3DDBF0020FD468403002090
:1048600013B54FF6FF73012269460248FEF7B6F909
:1048700000981CBD54020020FDF780FAFEF714FCDE
:10488000FEF7B4FAFEF77CFAFEF758FAFEF7AAFB39
:10489000FEF71CFBFEF74EFBFEF780FBFEF7BEFBB0
:1048A000DFF86891002220214846FDF754FA58A00D
:1048B000FEF7EAFD6148FCF7E3FEFCF771F902211F
:1048C0005E48FCF799FA5EA0FEF7DEFD002108467F
:1048D000FCF72CFA4FF4FA742046FDF721F9002377
:1048E0000F2201211846FCF78FF9C820FDF718F9AF
:1048F00000230F2202211846FCF786F9C820FDF795
:104900000FF900230F2203211846FCF77DF900213F
:1049100007220846FCF7DCF92046FDF701F9544D63
:10492000544C2868E06468682065A86860650420C5
:10493000FEF792FB6420FDF7F3F80620FEF78CFBF0
:104940006420FDF7EDF80520FEF786FB6420FDF7F7
:10495000E7F8A0882064E188616427898846A76415
:10496000E16CA165216DE165616D2166FBF7F8FEE3
:10497000DFF804A15146FBF701FD404E3060404690
:10498000FBF7EEFE5146FBF7F9FC70603846FBF78B
:10499000E7FE5146FBF7F2FCB06000F0B5F9FEF718
:1049A0000DFA00F0CDF92868A0656868E065A86890
:1049B00020663348FDF7BCFD32A0FEF765FD0125FA
:1049C0000226032700F0A0FE00F0C2FF00F0DAF894
:1049D0000020FEF75FF92070012804D002280ED0D5
:1049E00003280FD10DE0A06938B10020A061A570A7
:1049F00020214846FDF7A7F904E00120F6E7A6705C
:104A000000E0A77000F00EFADCE70000001801409B
:104A10002D2D2D2D2D2D2D2D2D2D2D2D2D2D2D2DC6
:104A20002DC9E8B1B8B3F5CABCBBAFD6D02D2D2D7A
:104A30002D2D2D2D2D2D2D2D0A000000540100208F
:104A40002D2D2D2D2D2D2D2D2D2D2D2D2D2D2D2D96
:104A50002D43414ECDA8D0C5B3F5CABCBBAFB3C939
:104A6000B9A62D2D2D2D2D2D2D2D2D2D2D0A0000EE
:104A7000AC030020080000200000C84248010020CC
:104A80000C0200202D2D2D2D2D2D2D2D2D2D2D2DDC
:104A90002D2D2D2D2DC9E8B1B8B3F5CABCBBAFB3D0
:104AA000C9B9A62D2D2D2D2D2D2D2D2D2D2D0A00E5
:104AB00070B526480068FBF758FE4FF03332244BA0
:104AC000FBF747FD02460B46FBF749FD214C224D03
:104AD00022462B46FBF743FD0022204BFBF73CFD13
:104AE000FBF754FE1E4908601E480068FBF73DFEB8
:104AF00000221D4BFBF72DFD0B460246FBF72FFD59
:104B000022462B46FBF72BFD0022184BFBF724FD1A
:104B1000FBF73CFE1649086016480068FBF725FEC7
:104B20004FF06632144BFBF714FD02460B46FBF7C1
:104B300016FD22462B46FBF712FD00220F4BFBF71A
:104B40000BFDFBF723FE0E49086070BD300000200E
:104B5000333340407B14AE47E17A743F00407A40E3
:104B600014000020340000200040404000E07A4063
:104B7000180000203800002066E63D4000507440D8
:104B80001C0000202DE9F04739A0B8B0394E00686C
:104B9000DFF8E49036904946B068FBF765FBFBF719
:104BA00014FE074688467068FBF70FFE04460D4664
:104BB0003068FBF70AFE8DE8B00102460B462FA1D4
:104BC00004A8FEF771FC002004A900E0401C0A5C68
:104BD000002AFBD182B2FF233148FDF7FFFF4FF6D9
:104BE000FF7A5346032236A92D48FDF7F7FF2D4CD7
:104BF000A088216C401AFBF7AAFD4946FBF7BEFBD3
:104C0000FBF7E3FD07468846E088616C401AFBF736
:104C10009EFD4946FBF7B2FBFBF7D7FD05460E4666
:104C20002089A16C401AFBF792FD4946FBF7A6FBD1
:104C3000FBF7CBFD8DE8E00102460B461AA11DA84B
:104C4000FEF732FC00201DA900E0401C0A5C002A8F
:104C5000FBD182B2FF231248FDF7C0FF5346032267
:104C600036A90F48FDF7BAFF38B0BDE8F08700005D
:104C7000FFFFFF00840300200000C84274332E743D
:104C800078743D22783A25302E326620793A2530E4
:104C90002E3266207A3A25302E326622000000003D
:104CA000980200200800002074342E7478743D228D
:104CB000726F6C6C3A25302E3266207069746368AE
:104CC0003A25302E3266207961773A25302E3266C9
:104CD0002022000010B5EFF3058149B9EFF31081F0
:104CE00031B908490968022905D1EFF3118111B1E1
:104CF0006FF0050403E0002408B100F0C7FF204670
:104D000010BD000018010020EFF3058058B9EFF343
:104D1000108040B909490868022801D030B109E083
:104D2000EFF3118030B16FF005007047012008608B
:104D3000002070474FF0FF3070470000180100203E
:104D400010B5EFF3058060B9EFF3108048B90B4957
:104D50000868022802D0012806D00BE0EFF311808A
:104D600040B16FF0050010BD0220086000F0F6FFB2
:104D7000002010BD4FF0FF3010BD000018010020D2
:104D8000F0B585B00B464FF00004EFF305810394B6
:104D9000A1BBEFF3108189BB21490968022902D127
:104DA000EFF3118151BB48B3802618218DF81040D4
:104DB00004AD42B3176807B13D4697691FB1394644
:104DC0007F1E382F02D21779FF0702D0002005B0CE
:104DD000F0BD576907B1BE08D2F808C0BCF1000F9A
:104DE0000DD0D4685C2C18D312693AB137B18DE874
:104DF00006103246294601F022FB03900DE0D768E9
:104E00005FB912694AB903AACDE90012B2B22946C4
:104E100001F0E8FA012800D003940398D7E70000D6
:104E20001801002070B5264CA078012819D04FF445
:104E30007A65022834D0032841D12A460121002076
:104E4000A36DFBF70FFF2A4602210020E36DFBF75D
:104E500009FF236E03212A460020BDE87040FBF7BE
:104E600001BFFFF725FEA089E36CC83002B2012123
:104E7000002003F57A63FBF7F5FE208A236DC83026
:104E800002B20221002003F57A63FBF7EBFEA08A51
:104E9000636DC83002B20321002003F57A63DCE7BA
:104EA000084C2A46012100202368FBF7DBFE2A4636
:104EB000022100202368FBF7D5FE2368CAE770BDF6
:104EC00008000020AC0300202DE9F041134C0F46F0
:104ED000054666692068001D00F0A8FD681C07D122
:104EE00037B12168BDE8F0410D48091D00F0EEBD65
:104EF00020683544B5424560216805D2A068BDE808
:104F0000F041091D00F0CABD6068091D00F0C6FD32
:104F1000206B854200D22563BDE8F081C8000020E7
:104F2000AC0800202DE9F041054600F0DBFD2D4CDA
:104F30002069401C206120682B4F10B1E06930B31C
:104F40002BE025602069012827D1002606EB86008A
:104F500007EB800000F094FD761C382EF6D3234832
:104F600000F08EFD2148143000F08AFD1F482830E3
:104F700000F086FD1D483C3000F082FD1B4850309B
:104F800000F07EFD194860601430A06005E02068E4
:104F9000E96AC06A884200D82560E06A401CE06285
:104FA0006864E86AA169884200D9A06100EB8000CA
:104FB00007EB8000291D00F089FD00F0B3FDE069DA
:104FC00000280CD02068E96AC06A884207D20849E4
:104FD0004FF080500860BFF34F8FBFF36F8FBDE875
:104FE000F0810000C8000020FC0300205C080020C5
:104FF00004ED00E038B500F075FD104CA068C8B9AC
:105000000F4800F03DFD0E48143000F039FD0C480B
:105010002060143060600A4B00202833009003F1B8
:10502000500210210A2000F081FFA06010B105A1FC
:1050300000F0F6FDBDE8384000F074BD040100202A
:10504000C0080020546D72510000000030B4026CA2
:105050000B46002A0BD0C1681144C1604468A142CC
:1050600001D30168C16030BC1846FBF7D9B830BC29
:1050700070472DE9F041856B174604460026026C07
:1050800082B1C7B1E068FBF7CBF8E168206C091A80
:10509000E1602268914202D26168081AE060022F42
:1050A00016D017E02068A8B9606801F06BFA0646D0
:1050B000002060600EE0A068FBF7B2F8216CA068E9
:1050C0000844A0606168884204D32068A06001E0C1
:1050D00005B16D1E6D1CA5633046BDE8F08110B5AD
:1050E000044690F8590058B101280CD002280FD07E
:1050F000502080F31188BFF34F8FBFF36F8FFEE70F
:10510000206B00F023FD2046BDE8104000F01EBDDE
:1051100010BD000010484FF44061420706D0C01D8A
:105120000D4920F00700411AC1F540610B4A0023E8
:105130000144C2E900030839103A21F00701116067
:105140004B600B600B1AC0E9001393604FF00040F6
:105150005360D06070470000901000202C010020A8
:10516000144E154CA6F29C474FF08058DFF84C9037
:1051700012E000BF00F0B6FCF068C568281D00F022
:1051800055FC2069401E2061E068401EE06000F090
:10519000C9FC2846FFF7A3FFE0680028EAD1386879
:1051A0000128F9D9C9F80080BFF34F8FBFF36F8F83
:1051B000F2E7000098080020C800002004ED00E09D
:1051C00070B51D46049C51B1C4F80020C4E90F011C
:1051D0000121204600F0DEFE84F84C5070BD2460B2
:1051E000F4E72DE9F0470E46DDE9098417468246CB
:1051F00091009946089DA522206BFBF723F86FF0DC
:105200000301206B01EB8701084420F007077807B2
:1052100007D0502080F31188BFF34F8FBFF36F8FFB
:10522000FEE72218315C82F83410315C11B1401C69
:105230001028F6D3002684F84360382D00D3372594
:10524000E562C4E91356201D00F025FC04F11800A6
:1052500000F021FC2461C5F138006462A06166653C
:1052600084F858604A465146384600F03BFA2060C0
:10527000B8F1000F01D0C8F80040BDE8F087000089
:1052800030B5114900E011460A688242FBD34B68F1
:105290005C18844203D1406818444860084643685B
:1052A0001C18944209D1084C103C2468A24209D031
:1052B00052681A4442600A6812680260814200D053
:1052C000086030BD0460F9E72C01002070B50024AF
:1052D00041600B4D0061914206D8D11A826991421A
:1052E00006D2011D686807E09A4203D2994201D3B1
:1052F000012403E0011D286800F0D0FB204670BDAA
:105300000401002010B5044600F0ECFBA06B28B1AE
:105310005FF0000400F006FC204610BD0124F9E710
:1053200030B589B0304D55E00498002806DADDE943
:105330000601059A9047049800284BDB069C60699B
:1053400010B1201D00F072FB02A800F0B9F802466F
:1053500004980A283ED2DFE800F00505053D26370F
:1053600005053D260598A169034601442046FFF73F
:10537000ADFF00B3616A20468847E069012829D162
:10538000002000900598A169002342181946204684
:1053900001F002FA78B9502080F31188BFF34F8FE3
:1053A000BFF36F8FFEE70598A06128B181181346FF
:1053B0002046FFF78BFF0DE0502080F31188BFF3EC
:1053C0004F8FBFF36F8FFEE794F82C0010B9204683
:1053D00000F0BCFB002204A9A86800F02DFF002803
:1053E000A2D109B030BD0000040100202DE9FC412C
:1053F0000F46054600F0F6FC01A800F061F80446EF
:10540000019818B101F036F9BDE8FC81224EAFB128
:1054100070680068A8B30027291B3A46B06800F0FE
:1054200013FC01F027F90028EED11C494FF0805001
:105430000860BFF34F8FBFF36F8FE5E7A542EBD84E
:1054400001F018F930682746C068C468201D00F0D4
:10545000EDFAE069012810D1A0692B4641193A46BE
:105460002046FFF733FF40B100200346014600907D
:105470002A46204601F090F920B1616A204688470B
:10548000C2E707E0502080F31188BFF34F8FBFF3CE
:105490006F8FFEE70127BFE70401002004ED00E065
:1054A00006484168096829B14168C968C9684968FE
:1054B000016370474FF0FF31FAE70000C800002099
:1054C00070B5054600F0F4FF064E0446306984428C
:1054D00003D200F009F8012000E0002028602046F7
:1054E000346170BD04010020F8B5194D1FE0C0689B
:1054F000C4680668201D00F099FA616A2046884752
:10550000E069012813D1A0693044B04206D9246172
:105510006060211D286800F0C1FA08E00020034601
:10552000014600903246204601F036F938B128682D
:1055300001680029DBD16968C5E90010F8BD502079
:1055400080F31188BFF34F8FBFF36F8FFEE700002A
:105550000401002008484068401C4FF0500080F3D0
:10556000118804D0BFF34F8FBFF36F8FFEE7BFF3F7
:105570004F8FBFF36F8FFEE734010020074C206888
:10558000016841B1C0680021D0F80000FFF72EFF8C
:10559000FFF7C6FEF3E701210020F7E70401002032
:1055A0002DE9F041044600F09DFA94F9455004F1CC
:1055B000240609E0606A48B1304601F023F808B1DA
:1055C00000F092FB6D1E6DB2002DF3DC4FF0FF3644
:1055D00084F8456000F0A6FA00F084FA94F944508B
:1055E00004F1100709E0206948B1384601F00AF8D3
:1055F00008B100F079FB6D1E6DB2002DF3DC84F86C
:105600004460BDE8F04100F08DBA00002DE9F041A2
:105610000546002700F0E6FB314E306808B9FFF779
:1056200079FDF06805424BD1C5B3083568070ED047
:1056300005F00700C0F108000544680707D05020B6
:1056400080F31188BFF34F8FBFF36F8FFEE72DB349
:105650007068854234D82248103001460C6801E059
:1056600020460C466168A94202D221680029F7D180
:1056700031688C4224D0076821680160606808376F
:10568000411B10290FD96019420708D0502080F320
:105690001188BFF34F8FBFF36F8FFEE710E04160BB
:1056A0006560FFF7EDFD61687068401A7060B26870
:1056B000904200D2B060F06801430020C4E90001CC
:1056C00000F0D8FF780707D0502080F31188BFF38F
:1056D0004F8FBFF36F8FFEE73846BDE8F0810000C3
:1056E0001C01002010B5031F4FF080741C601B1FAD
:1056F00021F001011960191F024B0B601439403869
:105700000A6010BD555500082DE9F0414348444951
:10571000454A00680968401A424908603F491268D2
:1057200049688E1A4149424A0E603C4912688968AC
:105730008C1A40490C60FBF718F83F4FDFF8FC80EB
:105740003A464346FAF70BFFFBF720F83C4905467B
:1057500008603046FBF709F83A464346FAF7FFFE81
:10576000FBF714F83749064608602046FAF7FDFFB4
:105770003A464346FAF7F3FEFBF708F83249044687
:1057800008602846FAF7F1FF304FDFF8C4803A4648
:105790004346FAF756FFFAF7F9FF2E490546086027
:1057A0003046FAF7E2FF3A464346FAF74AFFFAF77D
:1057B000EDFF2949064608602046FAF7D6FF3A462B
:1057C0004346FAF73EFFFAF7E1FF24490446086032
:1057D0002846FAF7CAFF224F4FF0663842463B464A
:1057E000FAF716FEFBF704F805462046FAF7BDFF68
:1057F00042463B46FAF70CFEFAF7FAFF04463046FB
:10580000FAF7B3FF42463B46FAF702FEFAF7F0FF1B
:105810002A462146BDE8F041FEF750BEAC03002009
:105820005400002024000020580000202800002000
:105830005C0000202C0000200AD7A3703D0AC73F5F
:105840003C00002040000020440000209A999999D3
:1058500099992A40300000203400002038000020B0
:1058600066663F4000B5254B21F0004287B09A4262
:1058700003DC0022134600922BE0214B9A4208D110
:1058800040B94FF00100FEF777F9FEF756F907B07F
:1058900000BD03DBFEF74EF907B000BD02AAFDF71D
:1058A0003BFE10F003014FF001000DD0012914D090
:1058B00002291AD00DF1080C9CE80F00FDF7F0FF4B
:1058C00007B081F0004100BD0DF1080C00909CE88C
:1058D0000F00FEF7B9F807B000BD0DF1080C9CE809
:1058E0000F00FDF7DDFF07B000BD0DF1080C0090C3
:1058F0009CE80F00FEF7A8F8E2E70000FB21E93F73
:105900000000F07F2DE9F04106460F46FBF788F8CE
:1059100004000D4618BF0120284320F00040C0F1CC
:105920007F6000F1E040C00F0ED0301C18BF012096
:10593000384320F00040C0F17F6000F1E040C00F2C
:1059400004BF0120FEF718F920462946BDE8F08182
:105950002DE9FF47214EB068FAF737FF0746884622
:105960007068FAF732FF04460D463068FAF72DFFEB
:105970008DE8B00102460B4619A0FDF785FD1F4CCE
:10598000A088216C401AFAF7E2FEDFF874904946CD
:10599000FAF7F4FCFAF719FF07468846E088616CCD
:1059A000401AFAF7D4FE4946FAF7E8FCFAF70DFF79
:1059B00005460E462089A16C401AFAF7C8FE4946F2
:1059C000FAF7DCFCFAF701FF8DE8E00102460B462E
:1059D0000CA0FDF759FDBDE8FF87000084030020FF
:1059E000583A25302E326620593A25302E3266201C
:1059F0005A3A25302E3266200D0A00000800002099
:105A00000000C842726F6C6C3A25302E32662070EE
:105A100069746368203A25302E3266207961773ABE
:105A200025302E3266200D0A00000000D0E9013238
:105A300001699A60D0E901235A604A68824201D123
:105A400082684A60002202610868401E0860086897
:105A500070470000034B036003F15C000860802086
:105A600010607047D8090020044B036003F15C000C
:105A700008604FF48070106070470000340C002004
:105A800000F108014FF0FF32C0E90112C16001616D
:105A900000210160704700210161704730B50B683B
:105AA0005A1C02D000F1080202E0026904E022461A
:105AB000546825689D42FAD953684B6099608A60A2
:105AC000516008610168491C016030BD42684A604C
:105AD00093688B6093685960916008610168491C04
