S3150800000008210020DD010008793C00086F38000847
S31508000010753C0008990B00083142000800000000F2
S315080000200000000000000000000000004501000874
S31508000030FD0E00080000000089010008E53C0008E4
S31508000040F7010008F7010008F7010008F7010008A2
S31508000050F7010008F7010008F7010008F701000892
S31508000060F7010008F7010008F7010008F701000882
S31508000070F7010008F7010008DD0E0008ED0E00087C
S31508000080F7010008F7010008F7010008F701000862
S3150800009021420008F7010008F7010008F7010008E7
S315080000A0F7010008F7010008F7010008F701000842
S315080000B0F7010008B93D0008C93D0008F701000826
S315080000C0F7010008F7010008F7010008F701000822
S315080000D0F701000811420008F7010008F7010008B7
S315080000E0F7010008F7010008F7010008F701000802
S315080000F0F7010008F7010008F7010008F7010008F2
S31508000100F7010008F7010008F7010008F7010008E1
S31508000110F7010008F7010008D93D0008F7010008B3
S31508000120F7010008F7010008F7010008F7010008C1
S31508000130DFF80CD000F0F4FC00480047D55700085B
S3150800014008210020224B19680868B0E8F00F80F3F0
S315080001500988BFF36F8F4FF0000080F311884EF0C7
S315080001600D0E70470000000006480068006880F31E
S31508000170088862B661B6BFF34F8FBFF36F8F00DF93
S3150800018000BF00BF08ED00E0EFF30980BFF36F8FF3
S315080001900F4B1A6820E9F00F106008B54FF05000B1
S315080001A080F31188BFF34F8FBFF36F8F07F0DAF82C
S315080001B04FF0000080F31188BDE808401968086808
S315080001C0B0E8F00F80F30988BFF36F8F704700BF60
S315080001D060000020EFF3058070470000064880475E
S315080001E006480047FEE7FEE7FEE7FEE7FEE7FEE70E
S315080001F0FEE7FEE7FEE7FEE7613D0008310100087D
S31508000200202A04DB203A21FA02F00021704721FA5D
S3150800021002F3D040C2F120029140084319467047C4
S3150800022040EA01039B0703D009E008C9121F08C06A
S31508000230042AFAD203E011F8013B00F8013B521EEA
S31508000240F9D27047D2B201E000F8012B491EFBD261
S3150800025070470022F6E710B513460A4604461946C3
S31508000260FFF7F0FF204610BDF0B480EA0102D40F74
S315080002704200B2EB410F02D20246084611464A0036
S3150800028042D0C30DDDB2C1F3C752AD1A202D35DAFF
S31508000290C1F3160141F4000204B15242C5F1200629
S315080002A002FA06F12A411044B3EBD05F23D0C4B159
S315080002B0012DA0EBC35009DCF0BC4FF0004202EA66
S315080002C0C352DBB200F5000000F007BB400000F1A6
S315080002D0807000EBC350A0F1807040EAD1704900ED
S315080002E009E0490841EAC071A0EBC35000F50000D7
S315080002F0400800EBC350F0BC00F0E6BA61420122A8
S3150800030002EB4101001BF6E7F0BC704781F00041A3
S31508000310AAE780F00040A7E780EA010210B502F0DC
S315080003200043400022D04A001FD0010E01EB1261A3
S31508000330C0F35600C2F3560240F4000042F400022D
S31508000340A0FB022000047F39140400D0401C50EAA8
S31508000350124001D44000491EC2B20C0604EBD0106C
S31508000360401C4008802A02D003E0002010BD20F07F
S315080003700100002900DA0020184310BD30B480EAD5
S31508000380010202F0004530F0004221F0004013D08F
S3150800039090B1C30DD40DC2F31601C0F31600E41ACA
S315080003A041F4000140F400027D34914201D3641CFB
S315080003B000E04900002C02DA30BC002070474FF4F8
S315080003C000000023914201D3891A034340084FEAEB
S315080003D04101F7D151B1914202D14FF0004105E0F8
S315080003E002D24FF0010101E06FF0010103EBC450A6
S315080003F0284430BC00F068BA2DE9FE4F804681EAF1
S315080004000300C00F0C46009021F0004123F0004580
S31508000410B8EB0200A94105D24046214690461C4643
S315080004200B46024623F00040104347D0270DC7F37A
S315080004300A00C3F30A510290401A019040286BDA69
S31508000440C3F3130040F4801B0098924620B10023A2
S31508000450D2EB030A63EB0B0B01985946C0F1400235
S31508000460504600F010FA06460D4650465946019A7F
S3150800047000F018FA10EB08006141002487EA1152CF
S3150800048084EAE7731A4340D0009A62B3019A012AB4
S315080004904FEA075215DC001B61EB02014FF00042E0
S315080004A002EA0752CDE90042001C41F580113246A6
S315080004B02B4600F04FFA03B0BDE8F08F40462146C0
S315080004C0F9E7001B61EB0201001C41F580130018D7
S315080004D05B412018A2F5001747EB030140EAD570E7
S315080004E0B6196D4111E06D084FEA360645EAC07542
S315080004F04FEA0752001B61EB0201001C41F580110F
S3150800050049084FEA30000019514132462B4603B0DC
S31508000510BDE8F04F00F00FBA009801224000002312
S31508000520D0EB020263EBE073009821464FEAE074D1
S31508000530B8EB000061EB0401E9E783F000435BE7F1
S3150800054081F0004158E72DE9FE4F81EA030404F0E3
S31508000550004421F0004100944FF0000B23F00043C3
S3150800056050EA01045ED052EA03045BD0C3F30A548E
S31508000570C1F30A552C44A4F2F3340194A0FB0254A7
S31508000580C1F3130141F48011C3F3130343F4801339
S3150800059001FB024400FB034E840A970A44EA81548D
S315080005A047EA8357A4FB076802958D0A05FB07856A
S315080005B04FEA932C04FB0C542705029D4FEA065874
S315080005C047EA1637B5EB08056EEB070C870E920E51
S315080005D047EA811742EA8312A7FB0201B6EB0B0131
S315080005E064EB00042B0D43EA0C335E1844EB1C50F5
S315080005F0DA465146E7FB0201C5F313044FEA0B330B
S3150800060043EA14534FEA0432019C43EA0603A4F171
S315080006100C040294009CCDE900B400F09BF903B0E9
S31508000620BDE8F08F00200146F9E72DE9F04D81EA93
S31508000630030404F0004B21F0004514464FF0000A6D
S3150800064023F0004150EA050220D054EA01021DD0E9
S31508000650C5F30A570246C5F31303C1F31300C1F3E2
S315080006600A5640F4801543F48013A7EB0608101BBE
S31508000670D64608F2FD3873EB050002D308F10108E7
S3150800068001E092185B41B8F1000F03DA0020014639
S31508000690BDE8F08D00204FF48011064684460EE032
S315080006A0171B73EB050705D3121B63EB05030643FC
S315080006B04CEA010C49084FEA300092185B4150EAAF
S315080006C00107EDD152EA030012D082EA040083EA58
S315080006D00501084305D0101BAB4106D201220023B1
S315080006E006E000224FF0004302E06FF001025310CB
S315080006F01AEB06004CEB085110EB0A0041EB0B0114
S31508000700BDE8F04D00F017B9C10F80EAE070084463
S31508000710CA079623002100F0E0B896230022114666
S3150800072000F0DBB80EB5C10F80EAE0700844CA07CE
S31508000730002140F233438DE80E000A460B4600F0CE
S3150800074009F903B000BD70B5C1F30A5201F00045BE
S315080007500024C1F3130140F2FF3341F480119A4299
S3150800076001DA002070BD40F233439A42A2F23342C6
S3150800077003DC5242FFF744FD00E090402C43F1D0E1
S31508000780404270BD00F0004230F000400AD0C10D72
S3150800079001F56071C0F3160042EA0151C20840072C
S315080007A01143704700200146704701F0004330B4FA
S315080007B021F0004150EA010206D00A0DA2F5607246
S315080007C0C1F31301002A02DC30BC00207047440F35
S315080007D044EAC104C100E01830BC00EBC25000F086
S315080007E073B80000002801DBC0F10040002901DBD6
S315080007F0C1F100418142704730B50B4601460020E1
S315080008002022012409E021FA02F59D4205D303FAC4
S3150800081002F5491B04FA02F52844151EA2F1010245
S31508000820F1DC30BD2DE9F05F0546002092469B4677
S3150800083088460646814640241BE0284641464746E8
S315080008402246FFF7DDFC53465A46C01A914110D39B
S3150800085011461846224600F016F82D1A67EB0108CD
S315080008604F4622460120002100F00DF817EB00093B
S315080008704E41201EA4F10104DFDC484631462A46D3
S315080008804346BDE8F09F202A04DB203A00FA02F12D
S31508000890002070479140C2F1200320FA03F3194360
S315080008A090407047202A06DBCB17203A41FA02F01F
S315080008B043EAE07306E041FA02F3D040C2F12002AF
S315080008C091400843194670470029A8BF7047401C45
S315080008D0490008BF20F00100704710B4B0FA80FC48
S315080008E000FA0CF050EA010404BF10BC704749B185
S315080008F0CCF1200421FA04F411FA0CF118BF0121F5
S3150800090021430843A3EB0C01CB1D4FEA00614FEAD4
S31508000910102042BF002010BC704700EBC3501044A3
S315080009200029A4BF10BC7047401C490008BF20F02E
S31508000930010010BC704710B5141E73F1000408DAE4
S31508000940401C41F1000192185B411A4301D120F085
S31508000950010010BD2DE9F04D92469B4611B1B1FA42
S3150800096081F202E0B0FA80F220329046FFF78BFF60
S3150800097004460F4640EA0A0041EA0B0153465A4626
S31508000980084313D0114653EA010019D0C8F14002B2
S315080009905046FFF735FC05460E4650465946424630
S315080009A0FFF771FF084305D0012004E020463946C9
S315080009B0BDE8F08D0020054346EAE0762C43374330
S315080009C00A986305E40AA0EB08000022FD0A44EA37
S315080009D047540A3002D500200146E9E701051019F7
S315080009E06941DDE9084500196941BDE8F04DA2E70E
S315080009F070B521F0004303430CD0C1F30A55002417
S31508000A00D5EB040564EB0403D617AD1AB34102DB34
S31508000A100020014670BD201841EB025170BD2DE93A
S31508000A20F04D00231A461B1A8A4103DB00200146B3
S31508000A30BDE8F08DC1F30A52C1F3130141F48015E4
S31508000A404FF0000BD10702D100186D41521E002746
S31508000A50044640F2FF11384601EB620A3E468046DC
S31508000A60024600204FF48011FFF7CAFBC2197141F4
S31508000A70BB1846EB0100B4EB030C75EB000C04D372
S31508000A80E41A65EB000517460E46241908F101001D
S31508000A906D4180463428E3DDF91946EB0600091B4B
S31508000AA0A84103D24FF0FF32134601E00022134655
S31508000AB01BEB070046EB0A51BDE8F04DFFF73BBFBD
S31508000AC0C1F30A52C1F3130140F2FF3341F4801116
S31508000AD09A4202DA00200146704740F233439A42AE
S31508000AE0A2F2334202DC5242FFF78ABBFFF7CBBEC3
S31508000AF030B5041E71F1000404DB4FF00044404297
S31508000B0064EB0101141E73F1000405DB1C464FF06B
S31508000B100043524263EB0403994208BF904230BD3A
S31508000B20064C074D06E0E06840F0010394E807002C
S31508000B3098471034AC42F6D3FFF7FEFA8C820008C9
S31508000B40AC8200080EB540F2334102910021CDE98E
S31508000B5000110A460B46FFF7FDFE03B000BD30B58F
S31508000B608C1810F8012B12F00F0301D110F8013B75
S31508000B70120906D110F8012B03E010F8015B01F801
S31508000B80015B5B1EF9D101E001F8013B521EFBD166
S31508000B90A142E6D3002030BD00BFFEE700B58BB00A
S31508000BA0002006904FF6FF700190029000200390F7
S31508000BB00490059007900120089009900E200A904D
S31508000BC001A90A4800F05CFA08B100F098F9022178
S31508000BD0064800F095F908B100F091F9034800F0CD
S31508000BE09AFF08B100F08BF90BB000BDA81A0020D7
S31508000BF010B5002106E0092200BF1300A2F1010288
S31508000C00FBD1491C8142F6D310BD00002DE9F04105
S31508000C1086B004460D46174698460A2600200290D6
S31508000C20039008200490072C06DC0F2D04DC46EA06
S31508000C30042646EA051602E006B0BDE8F0810096ED
S31508000C401548077080F80180552013498870C870C8
S31508000C50087148718871C8710020104908700E4BD8
S31508000C600822009900F004F900200D4908600CE0FC
S31508000C700120FFF7BDFF0A480068401C08490860C4
S31508000C8008460068642800D903E00448007800286C
S31508000C90EED000BF00BFCFE7040000200C00002004
S31508000CA0000000202DE9F04186B006460F4614469E
S31508000CB01D464FF008080020029003900820049073
S31508000CC0072E06DC0F2F04DC48EA062848EA071830
S31508000CD002E006B0BDE8F081CDF80080002C04DA09
S31508000CE001DD204600E0604204B2200A1649087079
S31508000CF04C7055208870C870280E0871280C4871E9
S31508000D00280A8871CD710020104908700E4B0822F8
S31508000D10009900F0ADF800200D4908600CE00120AC
S31508000D20FFF766FF0A480068401C0949086008463C
S31508000D300068642800D903E0044800780028EED04B
S31508000D4000BF00BFC5E70000040000200C0000201B
S31508000D5000000020F0B587B004460D461746012668
S31508000D6000200390049008200590072C06DC0F2D20
S31508000D7004DC46EA042646EA051601E007B0F0BD9B
S31508000D800196154807705520134948708870C87031
S31508000D90087148718871C8710020104908700E4B97
S31508000DA00822019900F064F800200D4908600CE05B
S31508000DB00120FFF71DFF0A480068401C0849086023
S31508000DC008460068642800D903E00448007800282B
S31508000DD0EED000BF00BFD1E7040000200C000020C1
S31508000DE00000002070B586B004460D460026002097
S31508000DF00290039008200490072C06DC0F2D04DCD3
S31508000E0046EA042646EA051601E006B070BD0096D5
S31508000E1055201449087048708870C8700871487160
S31508000E208871C8710020104908700E4B0822009975
S31508000E3000F01EF800200D4908600CE00120FFF7BD
S31508000E40D7FE0A480068401C08490860084600683A
S31508000E50642800D903E0044800780028EED000BFD3
S31508000E6000BFD2E7040000200C000020000000208C
S31508000E702DE9F04387B006460C46174698464FF0CC
S31508000E8000091EB900200290009402E00420029096
S31508000E9001940497002003908DF814000BE009F1E3
S31508000EA001001FFA80F94FF6FE70814503DD012027
S31508000EB007B0BDE8F083084800F025FA0028EED010
S31508000EC006AB42466946044800F02FF805460DB1C0
S31508000ED00120EDE70020EBE7A81A002010B502482C
S31508000EE000F04EFF10BD0000C41C002010B50248DB
S31508000EF000F046FF10BD0000801C002070477047B8
S31508000F0010B5024692F82030012B01D0022B06D1EB
S31508000F1010684069084314686061002010BD506A73
S31508000F2040F4802050620120F8E7F0B504460D46EB
S31508000F301E4694F8207020688368A86800B900E007
S31508000F4000BF012F01D0022F7CD103F0806030B999
S31508000F5003F0006018B903F08050002873D0C3F37B
S31508000F600161022905D9606A40F400006062012027
S31508000F70F0BD012088403060A86860B9B5F800C0A7
S31508000F80E86840EA4C5C206800F5C07000EB011088
S31508000F90C0F800C00FE0D5E901C040EACC00D5F89A
S31508000FA00CC040EA0C00D4F800C00CF5C07C0CEB71
S31508000FB0011CCCF80000D5F810C0206800F5C070F8
S31508000FC000EB0110C0F804C0287D01280ED1206866
S31508000FD000F5C07000EB0110406840F4807C206882
S31508000FE000F5C07000EB0110C0F804C0D079000607
S31508000FF092F806C040EA0C4092F805C040EA0C2C6C
S3150800100010794CEA000C206800F5C07000EB01105E
S31508001010C0F80CC0D078000692F802C040EA0C402E
S3150800102092F801C040EA0C2092F800C040EA0C0091
S31508001030D4F800C00CF5C07C0CEB011CCCF80800F9
S31508001040206801E016E00FE000F5C07000EB011023
S31508001050006840F0010C206800F5C07000EB011034
S31508001060C0F800C0002083E7606A40F400106062A0
S3150800107001207DE7606A40F480206062012077E7FE
S31508001080F0B504460A46216894F82050012D01D08F
S31508001090022D74D1D1F8000240F00100C1F8000217
S315080010A0107D00F01F06012000FA06F3D1F81C0295
S315080010B09843C1F81C02D069C8B9D1F80C02984304
S315080010C0C1F80C02908880B2968940EA064601F576
S315080010D01070576940F83760108880B2168940EA60
S315080010E0064601F51070576900EBC7004660D069DF
S315080010F0012819D1D1F80C021843C1F80C029088BE
S3150800110080B2168840EA064601F51070576940F81D
S315080011103760908980B2168940EA064601F5107054
S31508001120576900EBC7004660906928B9D1F80402F0
S315080011309843C1F8040204E0D1F804021843C1F840
S315080011400402106928B9D1F814029843C1F81402A8
S3150800115004E0D1F814021843C1F81402106A0128F1
S3150800116004D1D1F81C021843C1F81C02D1F80002B8
S3150800117020F00100C1F800020020F0BDFFE7606A18
S3150800118040F4802060620120F7E7704770B5044696
S3150800119094F82050012D01D0022D7DD151B9206837
S315080011A0C06800F0030080B9606A40F4001060620D
S315080011B0012070BD2068006900F0030028B9606A44
S315080011C040F4001060620120F3E7206800F5D8704B
S315080011D000EB0110006800F004009060906840B9C8
S315080011E0206800F5D87000EB01100068400D10600B
S315080011F007E0206800F5D87000EB01100068C00809
S315080012005060206800F5D87000EB0110006800F007
S315080012100200D060206800F5D87000EB0110406825
S3150800122000F00F001061206800F5D87000EB01107F
S31508001230406800F47F40000A9061206800F5D87085
S3150800124000EB01104068000C5061206800F5D8706A
S3150800125000EB011080681870206800F5D87000EB64
S315080012600110806800F47F40000A5870206800F575
S31508001270D87000EB0110806800F47F00000C9870AD
S31508001280206800F5D87000EB01108068000ED87051
S31508001290206800F5D87000E02FE000EB0110C06868
S315080012A01871206800F5D87000EB0110C06800F4CA
S315080012B07F40000A5871206800F5D87000EB0110CD
S315080012C0C06800F47F00000C9871206800F5D8709B
S315080012D000EB0110C068000ED87131B92068C068EB
S315080012E040F020002668F06005E02068006940F0BC
S315080012F020002668306100205BE7606A40F48020A1
S315080013006062012055E70146002091F82020012A55
S3150800131001D0022A11D10B689B6803F0806303B1E0
S31508001320401C0B689B6803F0006303B1401C0B6804
S315080013309B6803F0805303B1401C70472DE9F05FAA
S3150800134004460025206846692068D0F8049020687D
S3150800135087682068D0F80CA02068D0F810B02068FC
S31508001360D0F8188006F00100002855D007F00100D3
S31508001370C0B101202168886007F0020018B1204634
S3150800138000F0F9FB0EE007F0040010B145F4006523
S3150800139008E007F0080010B145F4805502E0204641
S315080013A000F0E8FB07F48070C8B14FF4807021683C
S315080013B0886007F4007018B1204600F0DEFB0EE0E6
S315080013C007F4806010B145F4005508E007F40060A2
S315080013D010B145F4804502E0204600F0CDFB07F445
S315080013E08030C8B14FF480302168886007F4003037
S315080013F018B1204600F0C3FB0EE007F4802010B1B8
S3150800140045F4004508E007F4002010B145F480359E
S3150800141002E0204600F0B2FB06F0080038B10AF0F8
S31508001420100020B145F4007510202168C86006F048
S31508001430040040B10AF0080028B108202168C860F5
S31508001440204600F0A9F906F0020038B12068C06805
S3150800145000F0030010B1204600F0A0F906F04000A5
S3150800146038B10BF0100020B145F4806510202168D2
S31508001470086106F0200040B10BF0080028B10820EA
S3150800148021680861204600F043FB06F0100038B1D9
S315080014902068006900F0030010B1204600F039FB0F
S315080014A006F4003040B109F0100028B11020216878
S315080014B04860204600F02EFB06F4803040B109F063
S315080014C0080028B1082021684860204600F058FB2B
S315080014D006F4004088B309F0040078B306F4807077
S315080014E020B108F0010008B145F0010506F40070C6
S315080014F020B108F0020008B145F0020506F4806044
S3150800150020B108F0040008B145F0040506F40060AF
S31508001510A0B108F0700088B108F07000402817D014
S3150800152006DC10280BD020280CD0302819D10CE066
S31508001530502810D0602814D110E01DE019E045F0BD
S3150800154008050FE045F010050CE045F0200509E018
S3150800155045F0400506E045F0800503E045F4807552
S3150800156000E000BF00BF2068806920F07000216895
S3150800157088610420216848602DB1606A284360624A
S315080015802046FFF702FEBDE8F09F70B504460CB989
S31508001590012070BD94F8200010B9204600F0B0F87C
S315080015A02068006840F001002168086000F0C6FF66
S315080015B005460DE000F0C2FF401B0A2808D9606AFC
S315080015C040F400306062052084F820000120E0E73E
S315080015D02068406800F001000028EBD02068006809
S315080015E020F002002168086000F0A8FF05460DE01B
S315080015F000F0A4FF401B0A2808D9606A40F40030AE
S315080016006062052084F820000120C2E7206840684F
S3150800161000F002000028EBD1207E012806D12068C0
S31508001620006840F080002168086005E020680068CE
S3150800163020F0800021680860607E012806D12068B5
S31508001640006840F040002168086005E020680068EE
S3150800165020F0400021680860A07E012806D1206895
S31508001660006840F020002168086005E020680068EE
S3150800167020F0200021680860E07E012806D1206855
S31508001680006820F010002168086005E020680068FE
S3150800169040F0100021680860207F012806D12068E4
S315080016A0006840F008002168086005E020680068C6
S315080016B020F0080021680860607F012806D12068AC
S315080016C0006840F004002168086005E020680068AA
S315080016D020F0040021680860D4E902010843216962
S315080016E00843616908436168491E08432168C8615F
S315080016F000206062012084F82000002049E70000ED
S3150800170010B586B004460020029003900490059018
S315080017101E492068884236D100BF1D48C06940F07E
S3150800172000701B49C8610846C06900F00070019046
S3150800173000BF00BF00BF0846806940F0040088610A
S315080017400846806900F00400019000BF00BFC81475
S31508001750029000200390049002A90E4800F036FD7E
S315080017604FF480500290022003900320059002A9AE
S31508001770084800F02BFD00220521142000F06AFF1E
S31508001780142000F057FF06B010BD000000640040AA
S3150800179000100240000801407047000070B58AB08A
S315080017A00446002601AB03AA00212046FFF7EEFCFB
S315080017B00546C9480199016002994160002D7CD10E
S315080017C00798C6B2059818B1C4490498086002E09B
S315080017D0C2490398086005980028F0D1082EEED172
S315080017E003981B2822D19DF805009DF8041040EAAD
S315080017F0012000B2BA4908809DF807009DF8061036
S3150800180040EA012000B2B74908809DF808000006A2
S315080018109DF8091040EA01409DF80A1040EA0120A7
S315080018209DF80B100843B0490860BEE003982B28C2
S3150800183022D19DF805009DF8041040EA012000B267
S31508001840A74948809DF807009DF8061040EA012040
S3150800185000B2A44948809DF8080000069DF80910C2
S3150800186040EA01409DF80A1040EA01209DF80B1055
S3150800187008439D49486098E003983B2824D19DF881
S3150800188005009DF8041040EA012000B294498880BA
S315080018909DF807009DF8061040EA012000B291491C
S315080018A088809DF8080000069DF8091040EA014066
S315080018B09DF80A1040EA012000E00AE19DF80B10A5
S315080018C008438949886070E003984B2822D19DF81F
S315080018D005009DF8041040EA012000B28049C8803E
S315080018E09DF807009DF8061040EA012000B27D49E0
S315080018F0C8809DF8080000069DF8091040EA0140D6
S315080019009DF80A1040EA01209DF80B100843764915
S31508001910C8604AE003981F2803D10120734908705C
S3150800192043E003982F2803D10120704948703CE012
S3150800193003983F2803D101206C49887035E0039845
S315080019404F2803D101206949C8702EE003981C2846
S3150800195008D19DF80400664908709DF80500654998
S31508001960087022E003982C2808D19DF804006049E5
S3150800197048709DF805005F49487016E003983C28B2
S3150800198008D19DF804005A4988709DF80500594900
S3150800199088700AE003984C2807D19DF8040054493A
S315080019A0C8709DF805005349C8709DF8040094282E
S315080019B045D14A480068B0F5A27F11D19DF80B00C1
S315080019C04D490880084600884FF6FF7101EA002055
S315080019D0494908809DF80A0009880843464908804D
S315080019E03E48006840F24511884211D19DF80B0027
S315080019F042490880084600884FF6FF7101EA002030
S31508001A003E4908809DF80A00098808433B49088032
S31508001A1032480068B0F5A37F11D19DF80B0038490C
S31508001A200880084600884FF6FF7101EA002034490D
S31508001A3008809DF80A0009880843314908809DF8FE
S31508001A4004009C2845D125480068B0F5A27F11D12D
S31508001A509DF80B002B490880084600884FF6FF7151
S31508001A6001EA0020274908809DF80A0009880843EA
S31508001A70244908801948006840F24511884211D166
S31508001A809DF80B0020490880084600884FF6FF712C
S31508001A9001EA00201C4908809DF80A0009880843C5
S31508001AA0194908800D480068B0F5A37F11D19DF843
S31508001AB00B0016490880084600884FF6FF7101EAB0
S31508001AC00020124908809DF80A00098808430F4932
S31508001AD008800AB070BD000064010020540100208F
S31508001AE00E000020160000207C0100201E000020A9
S31508001AF022000020260000205E0100206001002050
S31508001B0062010020580100205A0100205C010020D3
S31508001B1070477047704770B5044694F8200001284E
S31508001B2022D1022084F820002068006820F00100F5
S31508001B302168086000F002FD05460DE000F0FEFC95
S31508001B40401B0A2808D9606A40F400306062052004
S31508001B5084F82000012070BD2068406800F001006C
S31508001B600028EBD16062F6E7606A40F40020606204
S31508001B700120F0E770477047704770477047704715
S31508001B8070470146002291F82100022808D0042057
S31508001B90886300BF002081F8200000BF012070473D
S31508001BA00868006820F00E000B681860086800686E
S31508001BB020F001000B68186091F840300120984029
S31508001BC0CB6B5860012081F8210000BF002081F806
S31508001BD0200000BF1046E2E770B50446002594F8D9
S31508001BE02100022803D00420A0630125C1E0206853
S31508001BF0006820F00E00216808602068006820F060
S31508001C000100216808605C492068884252D95A490F
S31508001C1078392068884201D1012047E0564964395D
S31508001C202068884201D1102040E053495039206885
S31508001C30884201D1801539E04F493C3920688842ED
S31508001C4001D1801432E04C4928392068884202D1F3
S31508001C504FF480302AE0484914392068884202D176
S31508001C604FF4801022E044492068884201D140049C
S31508001C701CE042492068884201D1012016E03F490C
S31508001C8014312068884201D110200FE03B492831E1
S31508001C902068884201D1801508E038493C3120681F
S31508001CA0884201D1801401E04FF480303349091F7E
S31508001CB0086051E0304978392068884201D101200E
S31508001CC047E02D4964392068884201D1102040E058
S31508001CD0294950392068884201D1801539E02649BA
S31508001CE03C392068884201D1801432E022492839DB
S31508001CF02068884202D14FF480302AE01E49143900
S31508001D002068884202D14FF4801022E01A492068E0
S31508001D10884201D140041CE018492068884201D154
S31508001D20012016E0154914312068884201D1102097
S31508001D300FE0124928312068884201D1801508E051
S31508001D400E493C312068884201D1801401E04FF4E5
S31508001D508030094980394860012084F8210000BF95
S31508001D60002084F8200000BF606B10B12046616B2C
S31508001D708847284670BD00008000024008040240DB
S31508001D8070B50446E06B05682068066894F840104C
S31508001D90042088402840002875D006F00400002852
S31508001DA0FAD02068006800F0200028B9206800688A
S31508001DB020F0040021680860D5492068884254D973
S31508001DC0D34978392068884201D1042049E0D049AE
S31508001DD064392068884201D1402042E0CC49503914
S31508001DE02068884201D100153BE0C9493C39206882
S31508001DF0884202D14FF4804033E0C549283920682B
S31508001E00884202D14FF480202BE0C149143920685A
S31508001E10884202D14FF4800023E0BD4920688842F9
S31508001E2001D1C0041DE0BB492068884201D10420C5
S31508001E3017E0B84914312068884201D1402010E0E3
S31508001E40B44928312068884201D1001509E0B14912
S31508001E503C312068884202D14FF4804001E04FF4BB
S31508001E608020AC49091F086054E0A94978392068E0
S31508001E70884201D104204AE0A5496439206888428D
S31508001E8002D1402043E04CE0A149503920688842FD
S31508001E9001D100153BE09E493C392068884202D1B1
S31508001EA04FF4804033E09A4928392068884202D1A5
S31508001EB04FF480202BE0964914392068884202D1D5
S31508001EC04FF4800023E092492068884201D1C0047B
S31508001ED01DE090492068884201D1042017E08D4909
S31508001EE014312068884201D1402010E08949283100
S31508001EF02068884201D1001509E086493C312068EE
S31508001F00884202D14FF4804001E04FF48020804996
S31508001F1080394860E06A002802D02046E16A88478E
S31508001F20F4E094F84010022088402840002871D038
S31508001F3006F002000028FAD02068006800F02000A9
S31508001F4040B92068006820F00A002168086001206E
S31508001F5084F821006E492068884254D96C4978393A
S31508001F602068884201D1022049E06949643920681D
S31508001F70884201D1202042E06549503920688842CC
S31508001F8001D140153BE062493C392068884202D1BC
S31508001F904FF4005033E05E4928392068884202D160
S31508001FA04FF400302BE05A4914392068884202D190
S31508001FB04FF4001023E056492068884201D1800476
S31508001FC01DE054492068884201D1022017E0514992
S31508001FD014312068884201D1202010E04D4928316B
S31508001FE02068884201D1401509E04A493C312068F9
S31508001FF0884202D14FF4005001E04FF400304549C1
S31508002000091F086054E0424978392068884202D19D
S3150800201002204AE057E03E4964392068884201D1E7
S31508002020202042E03A4950392068884201D14015BB
S315080020303BE037493C392068884202D14FF40050CA
S3150800204033E0334928392068884202D14FF40030FA
S315080020502BE02F4914392068884202D14FF400102A
S3150800206023E02B492068884201D180041DE02949D4
S315080020702068884201D1022017E0264914312068D9
S31508002080884201D1202010E0224928312068884260
S3150800209001D1401509E01F493C312068884202D128
S315080020A04FF4005001E04FF4003019498039486078
S315080020B000BF002084F8200000BFA06A30B3204685
S315080020C0A16A884722E094F84010082088402840F2
S315080020D0E0B106F00800C8B12068006820F00E00DC
S315080020E02168086094F8401001208840E16B486038
S315080020F00120A06384F8210000BF002084F8200096
S3150800210000BF206B10B12046216B884770BD0000C8
S3150800211080000240080402400146002209B9012055
S3150800212070471E4B086898420BD21D4B0868C01AA8
S315080021301423B0FBF3F08000086419480838C86314
S315080021400AE0164B0868C01A1423B0FBF3F08000A7
S31508002150086412480838C863022081F82100086814
S31508002160026843F6F0708243D1E901031843CB684D
S3150800217018430B6918434B6918438B691843CB6995
S31508002180184302430868026000208863012081F82A
S315080021902100002081F8200000BFC1E708040240A2
S315080021A00800024070B5044600F0C8F90646254600
S315080021B0681C10B104480078054400BF00F0BEF959
S315080021C0801BA842FAD370BD340000202DE9F847D9
S315080021D0024600239C467BE14FF0010808FA03F407
S315080021E0D1F8008008EA0400A0427DD1DFF8F4A205
S315080021F0D1F80480A8EB0A09D0453AD014DCB8F126
S31508002200030F50D009DCB8F1000F31D0B8F1010F37
S315080022101CD0B8F1020F49D120E0B8F1110F18D03F
S31508002220B8F1120F42D11EE0B9F5881F25D006DC99
S31508002230B9F5803F20D0B9F5801F37D11AE0B9F536
S31508002240001F18D0B9F5041F30D117E0D1F80CC01B
S315080022502DE0D1F80C8008F1040C28E0D1F80C80A8
S3150800226008F1080C23E0D1F80C8008F10C0C1EE0EC
S3150800227000BF00BF00BF00BF00BF00BFD1F8088085
S31508002280B8F1000F02D14FF0040C0BE0D1F808802A
S31508002290B8F1010F03D14FF0080C146102E04FF0BA
S315080022A0080C546103E04FF0000C00E000BF00BFCB
S315080022B0FF2801D8904601E002F104084646FF28A7
S315080022C002D84FEA830803E0A3F108084FEA880812
S315080022D04746D6F800804FF00F0909FA07F928EAA9
S315080022E009080CFA07F900E07AE048EA0908C6F88E
S315080022F00080D1F8048008F08058B8F1805F6FD16B
S3150800230000BFDFF8E481D8F8188048F00108DFF844
S31508002310D891C9F81880C846D8F8188008F0010876
S31508002320CDF8008000BF00BF4FEAB9384FEA9309DD
S3150800233058F829504FEA83784FEA18794FF00F0872
S3150800234008FA09F825EA0805DFF8A081424502D10E
S315080023504FF0000824E0DFF89881424502D14FF09B
S3150800236001081DE0DFF88C81424502D14FF00208D2
S3150800237016E0DFF88481424502D14FF003080FE0EA
S31508002380DFF87881424502D14FF0040808E0DFF80B
S315080023907081424502D14FF0050801E04FF006086A
S315080023A04FEA83794FEA197908FA09F848EA0505E0
S315080023B0DFF850814FEA930948F82950D1F804808C
S315080023C008F48038B8F5803F0BD1DFF83C81D8F89F
S315080023D0008048EA0008DFF83091C9F800800AE072
S315080023E075E0DFF82481D8F8008028EA0008DFF8CD
S315080023F01891C9F80080D1F8048008F40038B8F5B7
S31508002400003F0ED1DFF8008108F10408D8F80080F3
S3150800241048EA0008DFF8F09009F10409C9F80080D5
S315080024200DE0DFF8E48008F10408D8F8008028EA0F
S315080024300008DFF8D49009F10409C9F80080D1F83A
S31508002440048008F48018B8F5801F0ED1DFF8B8802C
S3150800245008F10808D8F8008048EA0008DFF8A890CC
S3150800246009F10809C9F800800DE0DFF89C8008F139
S315080024700808D8F8008028EA0008DFF88C9009F1E7
S315080024800809C9F80080D1F8048008F40018B8F5DE
S31508002490001F0ED1DFF8708008F10C08D8F800800C
S315080024A048EA0008DFF8609009F10C09C9F80080CD
S315080024B00DE0DFF8548008F10C08D8F8008028EA07
S315080024C00008DFF8449009F10C09C9F800805B1C84
S315080024D0D1F8008028FA03F8B8F1000F7FF47CAE33
S315080024E0BDE8F887000011100010024000080140FE
S315080024F0000C014000100140001401400018014082
S31508002500001C01400800014000040140024693688F
S315080025100B400BB1012000E00020704710B5C268DF
S3150800252021EA020302EA010443EA0443036110BDF7
S315080025300AB1016101E00B040361704701480068B4
S31508002540704700002C0000200348006803490978FA
S3150800255008440149086070472C0000203400002018
S3150800256010B50848006840F01000064908600320C6
S3150800257000F0AEF80F2000F007F800F02BF8002066
S3150800258010BD00000020024070B504460E480078D1
S315080025904FF47A71B1FBF0F00C490968B1FBF0F51C
S315080025A0284600F011FC08B1012070BD102C07D296
S315080025B000222146501E00F04DF80548046001E04F
S315080025C00120F2E70020F0E7340000207001002027
S315080025D03000002008B500BF1448806940F00100AB
S315080025E0124988610846806900F00100009000BF22
S315080025F000BF00BF0846C06940F08050C861084661
S31508002600C06900F08050009000BF00BF00220F2173
S31508002610901E00F01FF800BF0549486820F0E060EA
S3150800262040F00070486000BF08BD0000001002407E
S315080026300000014001460846002809DB00F01F0398
S3150800264001229A4043099B0003F1E023C3F80021C5
S3150800265000BF70472DE9F05F80460D4616460027F5
S3150800266001F020FE074639462A46334601F00700A0
S31508002670C0F1070ABAF1040F02D94FF0040A01E0C3
S31508002680C0F1070AD14600F1040ABAF1070F02D2CF
S315080026904FF0000A01E0A0F1030AD4464FF0010A00
S315080026A00AFA09FAAAF1010A0AEA020A0AFA0CFA65
S315080026B04FF0010B0BFA0CFBABF1010B0BEA030B0A
S315080026C04AEA0B042146404601F0F4FDBDE8F09FB6
S315080026D000BF00F00702064B19684FF6FF031940C2
S315080026E0044B0B4343EA0221014B196000BF7047B4
S315080026F00CED00E00000FA0570B504460D460CB96D
S31508002700012070BD5A48006800F00700A8420ED2A2
S315080027105748006820F007002843554908600846CE
S31508002720006800F00700A84201D00120E9E72078F8
S3150800273000F0020002281DD1207800F004000428C9
S3150800274005D14C48406840F4E0604A494860207822
S3150800275000F00800082805D14648406840F4605053
S31508002760444948604348406820F0F000A16808439F
S3150800277040494860207800F0010078B36068012875
S3150800278006D13C48006800F4003090B90120B8E74B
S315080027906068022806D13748006800F0007040B922
S315080027A00120AEE73348006800F0020008B90120AE
S315080027B0A7E73048406820F00300616808432D49C0
S315080027C04860FFF7BBFE064609E0FFF7B7FE801B29
S315080027D041F28831884202D9032092E707E025486A
S315080027E0406800F00C006168B0EB810FEDD120481D
S315080027F0006800F00700A8420ED91D48006820F0BE
S31508002800070028431A4908600846006800F00700D0
S31508002810A84201D0012074E7207800F004000428BB
S3150800282007D11448406820F4E060E168084311497C
S315080028304860207800F00800082808D10D4840684C
S3150800284020F46050216940EAC1000A49486000F056
S315080028503FF808494968C1F30311074A515CC84063
S315080028600649086006480068FFF78EFE002048E71C
S3150800287000200240001002403C8100087001002040
S3150800288030000020014800687047000070010020F1
S3150800289000B5FFF7F7FF04494968C1F30221034A67
S315080028A0515CC84000BD0000001002404C81000881
S315080028B000B5FFF7E7FF04494968C1F3C221034A97
S315080028C0515CC84000BD0000001002404C81000861
S315080028D0F0B585B00FF26C0C9CE8E01001A8A0E8F2
S315080028E0E0101CA52D680095002100220023002475
S315080028F00020194D696801F00C05F5B1042D02D0C8
S31508002900082D19D101E0154819E001ADC1F3834638
S31508002910AC5D01F4803555B10F4D6D68C5F3404582
S315080029201DF805200D4D6543B5FBF2F302E00C4D8D
S3150800293004FB05F3184602E000BF084800BF00BFC5
S3150800294005B0F0BD02030405060708090A0B0C0DBD
S315080029500E0F1010010200000010024000127A004B
S3150800296000093D00F8B504460CB90120F8BD2078E9
S3150800297000F00100002878D0F848406800F00C0004
S3150800298004280CD0F548406800F00C00082811D13E
S31508002990F248406800F48030B0F5803F0AD1EF482D
S315080029A0006800F4003000285FD0606800285CD119
S315080029B00120DBE700BF6068B0F5803F06D1E74835
S315080029C0006840F48030E549086028E0606858B936
S315080029D0E248006820F48030E0490860084600684C
S315080029E020F4802008601AE06068B0F5A02F0BD1AB
S315080029F0DA48006840F48020D8490860084600682C
S31508002A0040F4803008600AE0D448006820F480303A
S31508002A10D24908600846006820F48020086000BF94
S31508002A20606888B1FFF78AFD054606E0FFF786FD70
S31508002A30401B642801D9032098E7C848006800F4B9
S31508002A4000300028F2D010E0FFF778FD054606E0D2
S31508002A50FFF774FD401B642801D9032086E7BF48A9
S31508002A60006800F400300028F2D1207800F0020057
S31508002A70022857D1B948406800F00C0050B1B74851
S31508002A80406800F00C00082818D1B448406800F4E3
S31508002A90803098B9B148006800F0020020B120697A
S31508002AA0012801D0012061E7AC48006820F0F80051
S31508002AB0616940EAC100A949086033E02069E8B1C4
S31508002AC00120A7490860FFF739FD054606E0FFF72C
S31508002AD035FD401B022801D9032047E79F480068B7
S31508002AE000F002000028F2D09C48006820F0F800A8
S31508002AF0616940EAC1009949086013E000209849D5
S31508002B000860FFF71BFD054606E0FFF717FD401BAB
S31508002B10022801D9032029E79048006800F002003E
S31508002B200028F2D1207800F0080008282DD1A069E5
S31508002B30B8B101208B490860FFF700FD054606E09D
S31508002B40FFF7FCFC401B022801D903200EE7834847
S31508002B50406A00F002000028F2D0012001F08EF849
S31508002B6013E000207F490860FFF7E8FC054606E009
S31508002B70FFF7E4FC401B022801D90320F6E6774854
S31508002B80406A00F002000028F2D1207800F0040024
S31508002B90042873D100277148C06900F0805070B9C5
S31508002BA000BF6E48C06940F080506C49C86108464D
S31508002BB0C06900F08050009000BF00BF01276A4836
S31508002BC0006800F48070B0B96748006840F4807007
S31508002BD065490860FFF7B2FC054606E0FFF7AEFC5C
S31508002BE0401B642801D90320C0E65F48006800F44A
S31508002BF080700028F2D000BFE068012806D1574847
S31508002C00006A40F001005549086227E0E06858B9B3
S31508002C105248006A20F00100504908620846006AD6
S31508002C2020F00400086219E0E06805280BD14B483B
S31508002C30006A40F00400494908620846006A40F004
S31508002C40010008620AE04548006A20F0010043498D
S31508002C5008620846006A20F00400086200BFE068BF
S31508002C60A0B1FFF76BFC054609E0FFF767FC401BC0
S31508002C7041F28831884202D9032077E622E03748B4
S31508002C80006A00F002000028EFD012E0FFF756FCB9
S31508002C90054608E0FFF752FC401B41F2883188429E
S31508002CA001D9032062E62D48006A00F002000028D8
S31508002CB0F0D1012F05D12948C06920F08050274955
S31508002CC0C86100BFE069C8B32448406800F00C003A
S31508002CD0082860D0E069022848D100202049086603
S31508002CE0FFF72CFC054606E0FFF728FC401B0228E8
S31508002CF001D903203AE61948006800F00070002858
S31508002D00F2D1206AB0F5803F07D11448406820F414
S31508002D100030A168084311494860D4E9080108430E
S31508002D200E49496821F4741108430C49486001208A
S31508002D300B490866FFF702FC054607E03DE0FFF78A
S31508002D40FDFB401B022801D903200FE60348006853
S31508002D5000F000700028F2D02FE0000000100240BA
S31508002D60000042428004424200700040002014499C
S31508002D700866FFF7E3FB054606E0FFF7DFFB401BA7
S31508002D80022801D90320F1E50E48006800F000701A
S31508002D900028F2D111E0E069012800D1E6E50948EA
S31508002DA0466806F48031206A814204D106F470111F
S31508002DB0606A814201D00120D8E50020D6E50000EE
S31508002DC0000042420010024070B504462546681EBF
S31508002DD0B0F1807F01D301200FE0681E4FF0E0219B
S31508002DE048610F214FF0FF3001F064FA00204FF0E0
S31508002DF0E021886107200861002070BD7047704790
S31508002E0030B502460B4600BF92F83C00012801D1B6
S31508002E10022030BD012082F83C0000BF022082F863
S31508002E203D00106844681068816824F070041868CA
S31508002E30044310684460144D1068A84213D0134D1B
S31508002E401068A8420FD01068B0F1804F0BD0104D13
S31508002E501068A84207D00F4D1068A84203D00E4D3F
S31508002E601068A84205D121F080015868014310680E
S31508002E708160012082F83D0000BF002082F83C00F6
S31508002E8000BF00BFC5E70000002C01400034014028
S31508002E900004004000080040000C004010B504463D
S31508002EA00CB9012010BD94F83D0028B9002084F81B
S31508002EB03C00204600F026F8022084F83D00211D3B
S31508002EC0206800F091FF012084F8460000BF84F8CE
S31508002ED03E0001213F200155402001554120015562
S31508002EE000BF00BF012084F842004320015544205A
S31508002EF001554520015500BF012084F83D000020FA
S31508002F00D0E7000038B5044628492068884216D11B
S31508002F1000BF2748C06940F002002549C861084635
S31508002F20C06900F00200009000BF00BF0022052122
S31508002F301D20FFF78FFB1D20FFF77CFB34E01D49A2
S31508002F402068884216D100BF1948C06940F00400BD
S31508002F501749C8610846C06900F00400009000BF20
S31508002F6000BF002205211E20FFF774FB1E20FFF775
S31508002F7061FB19E010492068884215D100BF0C484A
S31508002F80C06940F010000A49C8610846C06900F0E7
S31508002F901000009000BF00BF002205213620FFF771
S31508002FA059FB3620FFF746FB38BD000000040040F9
S31508002FB0001002400008004000100040014691F849
S31508002FC03D00012801D001207047022081F83D000C
S31508002FD00868C06840F001000B68D860164B08689E
S31508002FE0984213D0154B086898420FD00868B0F17C
S31508002FF0804F0BD0124B0868984207D0114B0868CF
S31508003000984203D0104B086898420CD1086880682B
S3150800301000F00702062A0CD00868006840F0010094
S315080030200B68186005E00868006840F001000B6846
S3150800303018600020C8E70000002C01400034014059
S315080030400004004000080040000C00402DE9F04153
S3150800305004460D4600BF94F83C00012802D1022020
S31508003060BDE8F081012084F83C0000BF022084F806
S315080030703D002068866826F0770626F47F46206895
S3150800308086602868502833D00CDC202850D004DC11
S3150800309000284BD0102851D149E0302849D0402883
S315080030A04CD139E060282DD0702807D0B0F5805F64
S315080030B003D0B0F5005F41D10DE040E0D5E9021339
S315080030C06A68206800F0DEFE2068866846F07706A3
S315080030D02068866033E0D5E902136A68206800F044
S315080030E0D1FE2068806840F480402168886026E028
S315080030F0EA686968206800F0D9FE5021206800F067
S31508003100CCFE1CE0EA686968206800F0E2FE6021EF
S31508003110206800F0C2FE12E0EA686968206800F0DC
S31508003120C5FE4021206800F0B8FE08E000BF00BFD9
S3150800313000BF2968206800F0B0FE00E000BF00BFAD
S31508003140012084F83D0000BF002084F83C0000BF41
S3150800315000BF85E7704710B5044620680069C0F3CC
S315080031604000D8B12068C068C0F34000B0B16FF025
S31508003170020021680861012020772068806900F034
S31508003180030018B12046FFF7E5FF05E0204600F0EA
S31508003190ADF8204600F0ABF80020207720680069DB
S315080031A0C0F38000D8B12068C068C0F38000B0B111
S315080031B06FF0040021680861022020772068806982
S315080031C000F4407018B12046FFF7C4FF05E020461A
S315080031D000F08CF8204600F08AF800202077206856
S315080031E00069C0F3C000D8B12068C068C0F3C00049
S315080031F0B0B16FF0080021680861042020772068C4
S31508003200C06900F0030018B12046FFF7A3FF05E0E8
S31508003210204600F06BF8204600F069F80020207779
S3150800322020680069C0F30010D8B12068C068C0F3F0
S315080032300010B0B16FF010002168086108202077EF
S315080032402068C06900F4407018B12046FFF782FF75
S3150800325005E0204600F04AF8204600F048F800202D
S3150800326020772068006900F0010058B12068C0681E
S3150800327000F0010030B16FF00100216808612046B6
S3150800328000F036F820680069C0F3C01058B120680D
S31508003290C068C0F3C01030B16FF0800021680861C3
S315080032A02046FFF7ABFD20680069C0F3801058B1CF
S315080032B02068C068C0F3801030B16FF04000216804
S315080032C00861204600F04AF820680069C0F34010FB
S315080032D058B12068C068C0F3401030B16FF02000C4
S315080032E0216808612046FFF78AFD10BD70477047C0
S315080032F010B5044615492068884203D12021144890
S31508003300FFF70CF91349206888421ED11248007845
S31508003310401C1149087008460078012803D104208A
S3150800332000F0C0FC11E00C480078022803D1062002
S3150800333000F0B8FC09E008480078032805D1002009
S3150800334005490870052000F0ADFC10BD00040040DA
S31508003350000C0140001000405201002070477047E1
S31508003360704700002DE9F84F044620680568206874
S31508003370C668206847694FF00009CA4605F00F0974
S31508003380B9F1000F0AD105F0200038B106F0200087
S3150800339020B1204600F0E6FDBDE8F88FB9F1000F30
S315080033A071D007F0010018B906F4907000286AD0A9
S315080033B005F0010030B106F4807018B1206C40F0B9
S315080033C00100206405F0040030B107F0010018B1CF
S315080033D0206C40F00200206405F0020030B107F0CE
S315080033E0010018B1206C40F00400206405F00800C4
S315080033F048B106F0200010B907F0010018B1206C9A
S3150800340040F008002064206C68B305F0200028B15D
S3150800341006F0200010B1204600F0A4FD206840699F
S31508003420C0F3801A206C00F0080010B9BAF1000F3A
S3150800343022D0204600F06BFD2068406900F040006D
S31508003440B0B12068406920F0400021684861A06B4F
S3150800345050B15648A16B4863A06BFEF7BDFB10B18F
S31508003460A06B416B88470CE02046FFF779FF08E020
S315080034702046FFF775FF04E02046FFF771FF00209E
S31508003480206489E7FFE7206B012878D105F0100052
S31508003490002874D006F01000002870D000BF002065
S315080034A0009020680068009020684068009000BF7F
S315080034B000BF2068406900F04000C0B3A06B0068F8
S315080034C040681FFA80F8B8F1000F2FD0A08D40454C
S315080034D02CDDA4F82E80A06B806920281FD02068D8
S315080034E0C06820F480702168C8602068406920F0B0
S315080034F00100216848612068406920F04000216881
S315080035004861202084F83E00002020632068C068B7
S3150800351020F010002168C860A06BFEF732FBA08D72
S31508003520E28D801A81B22046FFF719FF34E7FFE7DC
S31508003530A08DE18D401A1FFA80F8E08DE8B1B8F148
S31508003540000F1AD02068C06820F490702168C860FF
S315080035502068406920F0010021684861202084F82D
S315080035603E00002020632068C06820F01000216813
S31508003570C86041462046FFF7F2FE0DE7FFE705F073
S31508003580800030B106F0800018B1204600F0DAFD60
S3150800359002E705F0400030B106F0400018B12046B9
S315080035A000F0D0FCF8E600BFF6E60000FB3E000897
S315080035B010B504460CB9012010BDA06900B100E0A1
S315080035C000BF94F83D0028B9002084F83C00204646
S315080035D000F028F8242084F83D002068C06820F40C
S315080035E000502168C860204600F02EFD206800695A
S315080035F020F49040216808612068406920F02A007C
S31508003600216848612068C06840F400502168C86095
S3150800361000202064202084F83D0084F83E00002025
S31508003620CAE7000010B586B0044600200290039051
S31508003630049005905149206888426AD100BF5048D5
S31508003640806940F480404E4988610846806900F4E4
S315080036508040019000BF00BF00BF0846806940F067
S31508003660040088610846806900F00400019000BFE4
S3150800367000BF48150290022003900320059002A976
S315080036804048FEF7A3FD4FF48060029000200390A7
S31508003690049002A93B48FEF799FD3B483B49086060
S315080036A0002048600021394881608021C1600021DE
S315080036B0016141618161C161FEF72EFD08B1FDF727
S315080036C01EFC00BF3148A063446200BF2E48143870
S315080036D02F4908601020486000212D48816080210C
S315080036E0C1600021016141618161C161FEF714FD7C
S315080036F008B1FDF704FC00BF25486063446200BFBB
S31508003700002205212520FEF7A5FF2520FEF792FFBA
S3150800371031E02049206888422DD100BF1848C06989
S3150800372040F400301649C8610846C06900F4003004
S31508003730019000BF00BF00BF0846806940F0040042
S3150800374088610846806900F00400019000BF00BF48
S3150800375004200290022003900320059002A909483C
S31508003760FEF734FD0820029000200390049002A979
S315080037700448FEF72BFD06B010BD000000380140D6
S31508003780001002400008014058000240801C00203A
S31508003790C41C00200044004070472DE9F84F044639
S315080037A00E46174699464FF0000A94F83D00202821
S315080037B05AD106B117B90120BDE8F88F00BF94F8B1
S315080037C03C00012801D10220F6E7012084F83C00DC
S315080037D000BF00202064212084F83D00FEF7AEFEDD
S315080037E08246A784E784A068B0F5805F04D1206983
S315080037F010B90025B04602E035464FF0000800BF74
S31508003800002084F83C0000BF1BE0534600228021BC
S315080038102046CDF8009000F0C5FC08B10320CBE7A0
S3150800382045B9B8F80000C0F308002168486008F1F7
S31508003830020803E02878216848606D1CE08C401E69
S31508003840E084E08C0028E0D153460022402120463F
S31508003850CDF8009000F0A6FC08B10320ACE72020C4
S3150800386084F83D000020A7E70220A5E7704700BFBF
S31508003870FEE7000010B50446012C01D12349087063
S315080038802248007858B310212148FEF73FFE50B170
S3150800389008211F48FEF73AFE28B101211D48FEF708
S315080038A035FE01281BD10A20FEF77CFC00201749AB
S315080038B0087010211648FEF729FE08B9012010BD28
S315080038C008211348FEF722FE08B90220F7E701216E
S315080038D01048FEF71BFE012815D10320EFE710213B
S315080038E00B48FEF713FE01280DD108210848FEF7FC
S315080038F00DFE012807D101210648FEF707FE10B97B
S315080039000120024908700020D9E700002A0000209B
S31508003910001801400008014010B50D480D4908601F
S315080039200620486000210B488160C1604FF40031D1
S315080039300161C90041610021017641768176C1762F
S3150800394001774177FDF721FE08B1FDF7D8FA10BDDA
S3150800395000640040A81A002008B500BF0E48406958
S3150800396040F001000C4948610846406900F0010032
S31508003970009000BF00BF002205210E20FEF76AFE58
S315080039800E20FEF757FE002205210F20FEF762FEE5
S315080039900F20FEF74FFE08BD0010024010B5074A7B
S315080039A00021074802F03CFA06490860064A002149
S315080039B0064802F035FA0649086010BDF48000088A
S315080039C0D13C0008B000002018810008DB3C000844
S315080039D0B400002000B585B0002001900290039045
S315080039E0049000BF3848806940F040003649886135
S315080039F00846806900F04000009000BF00BF00BF85
S31508003A000846806940F0040088610846806900F02D
S31508003A100400009000BF00BF00BF0846806940F060
S31508003A20080088610846806900F00800009000BF19
S31508003A3000BF012220212548FEF77AFD00224FF417
S31508003A4080712348FEF774FD012220212148FEF7E4
S31508003A506FFD4AF61800019000200290012003909D
S31508003A6001A91A48FEF7B2FB202001900120029016
S31508003A7003900320049001A91448FEF7A7FB012030
S31508003A800190002002900220039001A91048FEF739
S31508003A909DFB4FF480700190012002900020039056
S31508003AA00220049001A90A48FEF790FB2020019005
S31508003AB00120029003900320049001A90548FEF70F
S31508003AC085FB05B000BD000000100240001801404B
S31508003AD000080140000C014000B587B000200390A3
S31508003AE004900590069001900290154815490860C3
S31508003AF041F61F40486000211248816042F20F716A
S31508003B00C160002101618161FFF7C8F908B1FDF7BD
S31508003B10F6F94FF48050039003A90A48FFF796FA7E
S31508003B2008B1FDF7ECF900200190029001A90548BB
S31508003B30FFF766F908B1FDF7E2F907B000BD000026
S31508003B4000040040201B002000B587B00020039029
S31508003B500490059006900190029015481549086052
S31508003B6041F61F4048600021124881604FF4FA610F
S31508003B70C160002101618161FFF790F908B1FDF785
S31508003B80BEF94FF48050039003A90A48FFF75EFA7E
S31508003B9008B1FDF7B4F900200190029001A9054883
S31508003BA0FFF72EF908B1FDF7AAF907B000BD000026
S31508003BB000080040681B00201CB5002000900190FA
S31508003BC00E480F49086041F61F40486000210C481E
S31508003BD081604FF47A71C16000218161FFF75EF957
S31508003BE008B1FDF78CF90020009001906946044859
S31508003BF0FFF706F908B1FDF782F91CBD0010004071
S31508003C00B01B002010B50B480B4908604FF4E13093
S31508003C104860002108488160C16001610C2141614A
S31508003C2000218161C161FFF7C3FC08B1FDF767F99F
S31508003C3010BD000000380140F81B002010B50B48E5
S31508003C400B4908604FF4E13048600021084881605C
S31508003C50C16001610C21416100218161C161FFF7E9
S31508003C60A7FC08B1FDF74BF910BD00000044004061
S31508003C703C1C002000BFFEE77047000008B5084955
S31508003C800968C9084FF47A72B1FBF2F14143009111
S31508003C9000BF00BF00994A1E00920029F9D108BD4D
S31508003CA07001002010B504469420084908700020C9
S31508003CB048708870C870087148718871C8710B4659
S31508003CC0082204F5A071FDF7D3F810BDB80000204E
S31508003CD000BF012002F046F8FBE700BF012002F012
S31508003CE041F8FBE710B5FEF72FFC03F0ADFF0128FE
S31508003CF001D003F0FBFB10BD00B58FB0282105A845
S31508003D00FCF7A7FA14216846FCF7A3FA01200590E8
S31508003D1000040690002007900120099002200C90CC
S31508003D20C1030D914FF4E0110E9105A8FEF71AFE96
S31508003D3008B1FDF7E4F80F2000900220019000205A
S31508003D4002904FF480600390002004900221684698
S31508003D50FEF7D2FC08B1FDF7D2F80FB000BD00009F
S31508003D601148006840F001000F490860084640689D
S31508003D700E4908400C494860084600680C49084046
S31508003D80094908600846006820F48020086008464B
S31508003D90406820F4FE0048604FF41F008860C8039E
S31508003DA00449086070470000001002400000FFF850
S31508003DB0FFFFF6FE08ED00E010B50248FFF7CBF965
S31508003DC010BD0000201B002010B50248FFF7C3F9FC
S31508003DD010BD0000681B002010B50248FFF7BBF9AC
S31508003DE010BD0000B01B002010B50268204B984299
S31508003DF00ED0204B98420BD0B0F1804F08D01E4B06
S31508003E00984205D01D4B984202D01D4B984203D1CB
S31508003E1022F070024B681A43154B98420ED0154B88
S31508003E2098420BD0B0F1804F08D0134B984205D07A
S31508003E30124B984202D0124B984203D122F4407298
S31508003E40CB681A4322F080034C6943EA04020260F5
S31508003E508B68C3620B688362054B984202D0054B98
S31508003E60984201D10B6903630123436110BD000029
S31508003E70002C0140003401400004004000080040C6
S31508003E80000C004030B50C46816821F47F4142EAB7
S31508003E90032525432943816030BD0A46816821F000
S31508003EA0700142F0070319438160704730B50B462D
S31508003EB01446026A056A25F001050562816921F042
S31508003EC0F00141EA041122F00A021A4381610262F2
S31508003ED030BD30B50B461446056A25F01005056257
S31508003EE08169026A21F4704141EA043122F0A00294
S31508003EF042EA03128161026230BD70B505466C6AFA
S31508003F000020E085E0842046FFF72AFA70BD0168A4
S31508003F10C96821F490710268D1600168496921F085
S31508003F20010102685161016B012905D10168C9685F
S31508003F3021F010010268D160202180F83E1000218E
S31508003F400163704710B504462068C06820F0400039
S31508003F502168C860202084F83D002046FFF786FCCB
S31508003F60002010BDF8B5044694F83E00222869D111
S31508003F70A068B0F5805F0CD1206950B90025A66A03
S31508003F8020684068C0F308003080A06A801CA062E0
S31508003F9015E0A56A0026A068B0F5805F03D0A06882
S31508003FA028B9206918B920684068287004E0206894
S31508003FB0406800F07F002870A06A401CA062E08D6F
S31508003FC0401E80B2E085A8BB2068C06820F02000AB
S31508003FD02168C8602068C06820F480702168C860BD
S31508003FE02068406920F0010021684861202084F893
S31508003FF03E00206B01281ED1002020632068C0687F
S3150800400020F010002168C8602068006800F01000E1
S3150800401010280AD100BF0020009020680068009090
S3150800402020684068009000BF00BFA18D2046FFF7BA
S3150800403096F903E004E02046FFF7AEFB0020F8BD42
S315080040400020FCE70220FAE770B5044621680969F2
S3150800405021F44051E2681143226811612269A1687E
S315080040601143626941EA02052168C96841F20C6296
S31508004070914329432268D1602168496921F4407136
S31508004080A2691143226851612D4A2168914202D1E1
S31508004090FEF70EFC01E0FEF7FBFB00EBC00101EBAF
S315080040A0001162689200B1FBF2F100EBC00202EB6C
S315080040B0001263689B00B2FBF3F26423B2FBF3F2CF
S315080040C002EBC20303EB0212A1EB8201322202EBDE
S315080040D001116422B1FBF2F101F0F00100EBC0021C
S315080040E002EB001263689B00B2FBF3F26423B2FB97
S315080040F0F3F201EB021200EBC00101EB0011636859
S315080041009B00B1FBF3F100EBC00303EB00136668F9
S31508004110B600B3FBF6F36426B3FBF6F303EBC3066C
S3150800412006EB0313A1EB8301322303EB011164238E
S31508004130B1FBF3F101F00F0111442268916070BDE3
S3150800414000380140014691F83D00212828D18868A9
S31508004150B0F5805F0BD1086948B90A6A1088C0F3C0
S3150800416008000B685860086A801C086205E00B6A3C
S31508004170581C086218780B685860C88C401E80B2B4
S31508004180C88458B90868C06820F080000B68D860F1
S315080041900868C06840F040000B68D8600020704787
S315080041A00220FCE72DE9F04104460D4617469846DD
S315080041B0069E21E0701CF8B12EB1FEF7BFF9A0EB00
S315080041C00800B04218D92068C06820F4D070216869
S315080041D0C8602068406920F00100216848612020F5
S315080041E084F83D0084F83E0000BF002084F83C00B7
S315080041F000BF0320BDE8F081206800682840A84277
S3150800420001D1012000E00020B842D3D00020F1E718
S3150800421010B50248FFF7A6F810BD0000F81B0020ED
S3150800422010B50248FDF78AF810BD0000A81A00204C
S3150800423000BFFEE70FB4054B10B503A9044A029860
S3150800424000F03EFC10BC5DF814FB0000B9570008EE
S31508004250740100200FB4084B10B504A902AA0398EC
S3150800426000F02EFC044602A9002000F0C0FF2046FC
S3150800427010BC5DF814FB0000EF510008490050EA35
S31508004280C12018BF04204A0D18BF40F0010040F2B3
S31508004290FF72B2EB515F08BF40F00200012808BF69
S315080042A00520704702480068C0F3022070470000E6
S315080042B00CED00E010B5002804DB0A07130E054ACA
S315080042C0135406E00A07140E034A00F00F031B1FD7
S315080042D0D45410BD00E400E018ED00E0EFF31180BF
S315080042E07047EFF305807047EFF3108070470000C2
S315080042F02DE9F74F144694B00021C4E90211159927
S31508004300079121F00045C9498D4206DC1599C4E993
S31508004310000117B00020BDE8F08FC549DFF814A3E7
S31508004320A9423CDD0799C44E0029C44FC44A1599D1
S31508004330534619DDFCF701F9554506D0C14AC24B6B
S31508004340FCF7FBF8C4E900010AE04FF0D352BE4B74
S31508004350FCF7F3F832463B46FCF7EFF8C4E90001F0
S3150800436017B00120BDE8F08FFCF746F8554506D092
S31508004370B44AB54BFCF740F8C4E900010AE04FF02F
S31508004380D352B14BFCF738F832463B46FCF734F8C3
S31508004390C4E9000117B04FF0FF30BDE8F08FAB4914
S315080043A0A942159978DB21F0004183468846A84A38
S315080043B0A84BFCF7C8F80022A74BFCF71DF8FCF73A
S315080043C0C2F90990FCF7AEF906460F469C4A5346D1
S315080043D0FCF7B9F843465A46FCF7B2F880468A46CF
S315080043E0984A994B30463946FCF7ADF82A0D01250F
S315080043F00B9242465346FCF7A3F8032DC4E9000185
S3150800440039D00B98C1F30A51401A05EB45111139F9
S31508004410814230DA9148C346784400EB0510CDF85E
S315080044200CA00C90D0E9002330463946FCF78BF8EF
S3150800443002460B460491069058460399FCF77DF808
S3150800444080468A4602460B4658460399FCF775F895
S31508004450049B069AFCF771F883460C980391394633
S31508004460D0E902233046FCF76EF85A46039BFCF760
S3150800447064F86D1CBDE707980028A2BF099817B015
S31508004480BDE8F08F616881F000416160099817B056
S315080044904042BDE8F08FFFE784461598C1F3130143
S315080044A0C0F30A50A0F2F5304FEA601800F01F0674
S315080044B0C6F12000139000200690079041F4801E54
S315080044C005206D4676B1664A08EB00017A4452F833
S315080044D0213002EB8101B3404A68139922FA01F1AF
S315080044E0194305E05F4908EB0002794451F82210A8
S315080044F0A1FB0E27A1FB0C131A449A4234BF0123D1
S31508004500002303EB070A05EB8003D3E901B70F4441
S315080045108F4234BF0121002193448B4411B1934546
S3150800452002D903E0934501D2012100E00021C3E945
S3150800453001B7514445F82010011EA0F10100C1DC65
S315080045400298059F00F10050800F12900298DDE94D
S3150800455003568000FCF7E6F8834628460D91FCF7DB
S31508004560F1FA6FF01D02FCF743FACDE90E01304669
S31508004570FCF7E8FA6FF03D02FCF73AFA80468A46FD
S315080045803846FCF7DFFA6FF05D02FCF731FA0746AA
S31508004590424653461191FBF72FFFDDE90E23FBF741
S315080045A02BFF5A460D9BFBF727FF00250E465A465A
S315080045B028460D9BFBF7C1FFDDE90E23FBF7BDFF80
S315080045C042465346FBF7B9FF3A46119BFBF7B8FF3D
S315080045D0DFF898A0244A5346FBF7B5FF07468846F6
S315080045E0234A244B31462846FBF7ADFF3A46434655
S315080045F0FBF702FF074688464FF0A8425346314666
S315080046002846FBF7A0FF3A464346FBF7F5FE159A00
S3150800461012F0004F04D0129A81F0004152421292D1
S31508004620C4E90001129817B0BDE8F08FFB21E93FF5
S315080046307CD90240FB21F93F7370032E8A19A33BEC
S31508004640000040543163621A61B4D03DFB21394100
S3150800465083C8C96D305FE43F0000E03F6C3D000051
S31508004660E83C0000CA3C0000182D4454FB21F93DE3
S315080046703326A611460B113C2DE9FF4D21F00048C3
S3150800468007460C46B8F1795F08DAFCF75CF80028AB
S3150800469001BF0020324904B0BDE8F08D3A462346F2
S315080046A010461946FBF74FFF054602462D480E46AB
S315080046B00B460621784400F05DF82A463346FBF798
S315080046C042FFDDE9022382468B4638462146FBF740
S315080046D03AFF04460F4652465B4628463146FBF7E4
S315080046E032FF22463B46FBF728FF07468A464FF02D
S315080046F0FF3228463146FCF77BF91B4A90450ADA11
S315080047003A465346FBF719FF04B00022BDE8F04DC0
S31508004710134BFBF715BF154A4245A8BFA8F5001568
S315080047204FF00004B8BF124D22462B46FBF705FF93
S315080047300646884622462B4600200949FBF7FDFE19
S3150800474004460D463A46534630464146FBF7F5FEC3
S3150800475004B022462B46BDE8F04DFBF7F1BE00003B
S315080047600000F03FA03A00003333D33F0000E93F92
S315080047700000D23F2DE9F0414F1E00EBC701044669
S31508004780D1E9000115461E4637F006020DD02A4625
S315080047903346FBF7D8FE7F1E04EBC703D3E9002395
S315080047A0FBF72AFE37F00602F1D1022F25D0042F97
S315080047B013D0062F18BFBDE8F0812A463346FBF70B
S315080047C0C2FED4E90A23FBF717FE2A463346FBF74F
S315080047D0BAFED4E90823FBF70FFE2A463346FBF751
S315080047E0B2FED4E90623FBF707FE2A463346FBF753
S315080047F0AAFED4E90423FBF7FFFD2A463346FBF756
S31508004800A2FED4E90223FBF7F7FD2A463346FBF757
S315080048109AFED4E90023BDE8F041FBF7EDBD0000A0
S315080048202DE9FF4D054621F0004084B00C46B0F155
S31508004830795F0BDA2846FFF721FD042808BF00F048
S315080048406FF8284608B02146BDE8F08D2A460B4683
S315080048501046FBF778FE06460F462A462346FBF720
S3150800486072FE804626488A4632463B4605217844EB
S31508004870FFF780FF83461098029160B3214A224BC6
S3150800488040465146FBF75FFECDE900015A464046D1
S315080048905146029BFBF757FE82468846DDE906012C
S315080048A04FF0FF32FCF7A4F852464346FBF745FEA5
S315080048B032463B46FBF747FEDDE90623FBF73DFE9E
S315080048C0DDE90023FBF739FE08B02A462346BDE892
S315080048D0F04DFBF735BE0B465A4630463946FBF7D0
S315080048E032FE084A084BFBF787FD42465346FBF75C
S315080048F02AFE08B02A462346BDE8F04DFBF77CBDE4
S31508004900DE390000495555555555C5BF0122FCF7F6
S315080049106FB80022134610461146FBF786BE000004
S31508004920024A00201107FCF763B8000001FDFFFFEB
S3150800493002E008C8121F08C1002AFAD1704770475A
S31508004940002001E001C1121F002AFBD170470000B8
S315080049500149086070470000780100202DE9FF5FD3
S31508004960DDE90220010DDDF838B0024318D044F61F
S315080049701050A1F2FF3141430D140F98012820D0A1
S31508004980A5EB0B00401C5FEA000A4FF00004474EF7
S31508004990DFF81C91A046504616D5CAF1000728E054
S315080049A00F98012443A2012808D0002100980F9BE4
S315080049B0C0E90021C0E90243BDE8FF9F6FEA0B0189
S315080049C0F4E7CBF10000DEE7074612E0F80707D068
S315080049D02246334640464946FBF7B5FD804689469A
S315080049E02246334610461946FBF7ADFD04460E46E9
S315080049F07F10002FEAD1DDE90201BAF1000F424625
S31508004A004B4602DAFBF79FFD01E0FBF70EFE044674
S31508004A100E460022284BFCF76BF803D84FF0FF3000
S31508004A20014607E00022254B20463146FBF7E4FC09
S31508004A30FCF746F8102409E0002C0ADB0A220023BA
S31508004A40FBF7F0FE019B30321A55641E50EA01024C
S31508004A50F2D1641C019AC4F1110314440F9A012A75
S31508004A6003D0012208430DD10AE0084304D00020F0
S31508004A704FF0110B0F9080E7A3EB0B056D1E0DE0B1
S31508004A805B4504DD4FF0000205F1010504E003DA99
S31508004A904FF00002A5F10105002AECD000980F9905
S31508004AA0C0E90231C0E9004586E70000000024405D
S31508004AB00000F03F300000000000F0430000E03F37
S31508004AC02DE9FF4F95B09B468946064600250FE21D
S31508004AD0252877D100242746F84A0121059400E0C5
S31508004AE0044316F8013F203B01FA03F01042F7D1C0
S31508004AF030782A2811D06FF02F033078A0F13002D1
S31508004B00092A16D8059A44F0020402EB820203EB3E
S31508004B1042021044761C0590EFE759F8042B0592DB
S31508004B20002A03DA504244F40054059044F0020483
S31508004B30761C30782E2816D116F8010F44F0040496
S31508004B402A280DD06FF02F023078A0F13003092BF8
S31508004B5009D807EB870302EB4303C718761CF3E76C
S31508004B6059F8047B761C30786C280FD006DC4C2864
S31508004B7017D068280DD06A2814D104E0742810D0FC
S31508004B807A280FD10DE044F400140AE044F48014A6
S31508004B9001E044F440147278824202D104F580148C
S31508004BA0761C761C307866280BD013DC582877D00C
S31508004BB009DC002875D04528F6D04628F4D04728C1
S31508004BC01AD19DE118E0632835D0642879D0652884
S31508004BD012D195E1702873D008DC6728F1D06928CE
S31508004BE06FD06E280DD06F2806D1B5E073282CD06B
S31508004BF0752875D0782874D05A46179990476D1C31
S31508004C0075E1C4F30250022809D003280DD0D9F85B
S31508004C10001004280DD00D6009F1040967E1D9F8E0
S31508004C200010EA17C1E90052F6E7D9F800100D801E
S31508004C30F2E70D70F0E719F8041B8DF80010002054
S31508004C408DF80100EA46012003E059F804AB4FF05D
S31508004C50FF3061074FF0000102D40DE008F10101B1
S31508004C608846B9420FDA8045F8DB1AF80810002999
S31508004C70F4D108E008F1010188468142FADB1AF806
S31508004C8008100029F6D105985B46A0EB08072146CF
S31508004C903846179A00F094FA284400EB080507E00E
S31508004CA04DE029E10DE01AF8010B5A46179990478D
S31508004CB0B8F10108F7D25B4621463846179A13E140
S31508004CC042E00A220092C4F302524FF0000A022A76
S31508004CD008D059F804CB032A4FEAEC710AD00DE044
S31508004CE029E02AE009F1070121F00702F2E802C1EA
S31508004CF0914609E00FFA8CFC4FEAEC71042A03D1BD
S31508004D004FFA8CFC4FEAEC71002907DA0A460021B3
S31508004D10DCF1000C61EB02012D2202E0220504D52C
S31508004D202B228DF80420012203E0E20701D020227D
S31508004D30F7E7904659E00A2102E010220DE010211B
S31508004D404FF0000A00910BE010224FF0000A44F0E1
S31508004D5004040827009203E008224FF0000A009294
S31508004D60C4F30252022A05D059F804CB0021032ABB
S31508004D7008D009E009F1070121F00702F2E802C1AB
S31508004D80914605E01FFA8CFC042A01D10CF0FF0CB1
S31508004D904FF00008220728D5702806D0009B83F01C
S31508004DA0100353EA0A0305D00EE040228DF80420CA
S31508004DB0012208E05CEA010206D030228DF80420C0
S31508004DC08DF8050002229046009B83F0080353EAFB
S31508004DD00A030AD15CEA010201D1620705D530222D
S31508004DE08DF804204FF001087F1E582804D034A0FF
S31508004DF003900EA802900DE036A0F9E753466046E8
S31508004E00009AFBF70FFD84460398825C0298401EC1
S31508004E10029002705CEA0100F0D1029806A9081A0D
S31508004E2000F1200A600702D524F4803400E0012747
S31508004E30574502DDA7EB0A0000E0002000EB0A0157
S31508004E40009005984144401A0590E00306D45B4655
S31508004E502146179A059800F0B3F90544002706E09D
S31508004E6001A85A46C05D179990476D1C7F1C474597
S31508004E70F6DBE0030CD55B462146179A059800F049
S31508004E809FF9054404E030205A46179990476D1C4F
S31508004E900099481E00900029F5DC08E0029802995E
S31508004EA05A460078491C0291179990476D1CBAF129
S31508004EB00001AAF1010AF1DC65E1000009280100F8
S31508004EC03031323334353637383961626364656672
S31508004ED00000000030313233343536373839414234
S31508004EE0434445460000000000F058F90544761C86
S31508004EF0307800287FF4ECAD19B02846BDE8F08F6D
S31508004F00620700D4062709F1070222F0070CFCE81D
S31508004F100223E14603F000485FEA080C02D00FF2CC
S31508004F20702C0DE05FEA045C02D50FF2682C07E0EE
S31508004F305FEAC47C02D00FF2602C01E0AFF2700C7D
S31508004F404FF0FF3823F00043CDF850C065280CD049
S31508004F5006DC452809D046281DD047283DD13DE026
S31508004F60662818D067287ED138E00021112F01DB8A
S31508004F70112000E0781CCDE9000106A90EA8FFF76C
S31508004F80EDFCDDE90F010E9A03910021009207F16D
S31508004F90010A04914DE04FF000400097CDE9011059
S31508004FA006A90EA8FFF7DAFCDDE90F0203920E9BAD
S31508004FB011990022DDF80CA00093049211B9791C0E
S31508004FC000EB010AB7EB0A0004D4C0F1FF3007F181
S31508004FD0010A0490AAEB0700019044E0012F00DAC9
S31508004FE001270021112F01DD112000E03846CDE907
S31508004FF0000106A90EA8FFF7B1FCDDE90F010E9A1C
S315080050000391002104910092BA4621070CD4039912
S31508005010514500DA8A46BAF1010F05DD009AAAF170
S315080050200101515C302908D0B84202DA10F1040FA8
S3150800503006DA0121CDE9011015E0AAF10101E9E737
S31508005040002805DC049901440491AAEB000102E05A
S31508005050411C514500DD8A460499401A401C0190BE
S315080050604FF000400290200704D40198504501DB18
S31508005070CDF8048000208DF84F0002980DF14F07F7
S31508005080B0F1004F25D02B200E9002984FF0020861
S3150800509000280CDA404202902D200E9007E00A21E3
S315080050A00298FBF7A9FB3031029007F8011DB8F109
S315080050B00001A8F10108F2DC02980028EFD1791E58
S315080050C00E980870307800F0200040F0450007F888
S315080050D0020D12A8C01B00F107081498007800B149
S315080050E0012000EB0A01019801EBE07105984144A3
S315080050F0401A401E0590E00306D45B462146179ADF
S31508005100059800F05DF805441498007818B15A46D9
S31508005110179990476D1CE00324D55B462146179ADC
S31508005120059800F04DF805441CE00498002807DBB4
S31508005130DDE90301884203DD0098405C179901E028
S31508005140179930205A469047049805F10105401CE6
S3150800515004900198401E019004D12E205A461799B2
S3150800516090476D1CBAF10001AAF1010ADDDC05E0E1
S3150800517017F8010B5A46179990476D1CB8F10001AC
S31508005180A8F10108F4DC5B462146179A0598ABE6B8
S315080051902D0000002B000000200000002DE9F04142
S315080051A0044600251E461746880404D405E03946F9
S315080051B02020B0476D1C641EF9D52846BDE8F0814D
S315080051C02DE9F041044600251E469046C80301D540
S315080051D0302700E02027880404D505E041463846F4
S315080051E0B0476D1C641EF9D52846BDE8F0810A68EB
S315080051F0531C0B601070704700B5244B21F0004219
S3150800520087B09A42DCBF0022134629DD204B9A421A
S3150800521008D140B94FF00100FFF79AFBFFF779FB79
S3150800522007B000BD03DBFFF771FB07B000BD02AA9C
S31508005230FFF75EF810F0030104BF0DF1080C9CE8B7
S315080052400F000DD0012001290ED0022914D00DF12E
S31508005250080C00909CE80F00FFF7E2FA07B000BDC3
S31508005260FFF70AFA07B000BD0DF1080C00909CE89C
S315080052700F00FFF7D5FA05E00DF1080C9CE80F00C2
S31508005280FFF7FAF907B081F0004100BDFB21E93FBD
S315080052900000F07F07B5A4B0FE482390FE48229090
S315080052A022992498FBF738F8249022992598FBF739
S315080052B033F8259022992698FBF72EF826902498FD
S315080052C0FBF760FACDE90401FFF796FF4FF0C042FD
S315080052D0F24BCDE90601FBF736F9CDE90A01239829
S315080052E0FBF750FACDE90801DDE90A23FBF784F854
S315080052F081F00041CDE90C01FBF757FA219024987B
S31508005300FBF740FACDE9080101F0CEFC4FF0C042A8
S31508005310E34BCDE90A01FBF716F9CDE90C01FBF7DA
S3150800532044FA20902598FBF72DFACDE90201FFF7FC
S3150800533063FF4FF0C042D94BCDE90401FBF703F9EF
S31508005340CDE908012398FBF71DFACDE90601DDE949
S315080053500823FBF751F80022D24BCDE90A01FBF7E7
S31508005360F2F8CDE90C01FBF720FA1E90CE491E98FB
S31508005370FAF7D2FF1F902598FBF704FACDE9080142
S3150800538001F092FC4FF0C042C54BCDE90A01FBF78C
S31508005390DAF8CDE90C01FBF708FA1D902698FBF719
S315080053A0F1F9CDE90201FFF727FF4FF0C042BB4BE9
S315080053B0CDE90401FBF7C7F8CDE908012398FBF707
S315080053C0E1F9CDE90601DDE90823FBF715F8002226
S315080053D0B44BCDE90A01FBF7B6F8CDE90C01FBF7AA
S315080053E0E4F91B901B9880F00040AF490D90FAF73E
S315080053F093FF1C902698FBF7C5F9CDE9080101F043
S3150800540053FC4FF0C042A64BCDE90A01FBF79BF8C7
S31508005410CDE90C01FBF7C9F91A9021991B98FAF7FF
S3150800542075FF0B901F99FAF777FF0D9021991E9833
S31508005430FAF76CFF0B901C99FAF76EFF0C900D9912
S31508005440FAF764FF0E9020990846FAF765FF0D9063
S3150800545021990846FAF760FF0C900D99FAF704FFB0
S3150800546019901D990846FAF757FF0D901E99084698
S31508005470FAF752FF0B901F990846FAF74DFF0A9064
S315080054800B99FAF7F1FE0C900D99FAF7EDFE1890C4
S315080054901A990846FAF740FF0D901B990846FAF73D
S315080054A03BFF0B901C990846FAF736FF0A900B99B2
S315080054B0FAF7DAFE0C900D99FAF7D6FE17902199AD
S315080054C01E98FAF723FF0B9020991A98FAF71EFFF1
S315080054D00A900B99FAF720FF0D9021991B98FAF775
S315080054E015FF0B9020991D98FAF710FF0A900B9953
S315080054F0FAF712FF0C900D99FAF708FF1290219906
S315080055001E98FAF703FF069019991798FAF7FEFE00
